:060000000A128A110C280F
:10000800FE00030EF5000A08F6000A128A1160299C
:100018000A128A110F280A128A115F220A128A11FB
:10002800FA00A701A801A901AA01AB01AC01F701D7
:10003800F801F90183010A128A1122280A128A1189
:10004800C6210A128A110A128A1148220A128A1132
:1000580083120313A901A801A701F701AD01AD0A95
:10006800F828851405100130A0000030A1000A12FC
:100078008A1103210A128A11831203132008AC0083
:100088000230A0000030A1000A128A1103210A12CE
:100098008A11831203132008AB000330A00000303C
:1000A800A1000A128A1103210A128A11831203136A
:1000B8002008AA00851D612862286C288714013051
:1000C800A4002408F70785196A286B2867286D2873
:1000D80087101D302C02031C72287328962828309C
:1000E8002C0203187828792896284D302B02031CF7
:1000F8007E287F2896285A302B02031884288528C2
:10010800962839302A02031C8A288B2896285030D2
:100118002A0203189028912896280130A400240860
:10012800A907EA284F302C02031C9B289C28BF28CB
:100138005C302C020318A128A228BF2835302B02D6
:10014800031CA728A828BF2848302B020318AD286D
:10015800AE28BF2839302A02031CB328B428BF2888
:1001680050302A020318B928BA28BF280130A40041
:100178002408A807EA2853302C02031CC428C528E1
:10018800E82873302C020318CA28CB28E8283F3007
:100198002B02031CD028D128E82852302B02031840
:1001A800D628D728E82821302A02031CDC28DD2895
:1001B800E82834302A020318E228E328E828013026
:1001C800A4002408A707EA282808A70003308312F8
:1001D8000313A6008A30A5005530A400A40BF2280A
:1001E800A50BF228A60BF228831203132D0303197B
:1001F800FE28FF283528F8280A128A110C288312AD
:100208000313A201A3014B290811881088190D298D
:100218000E290A29881D112912290E29881915293C
:10022800162912298E018F01881D1B291C291829BE
:100238000F08A3000E08A2005B2908158814881966
:10024800262927292329881D2A292B29272988197E
:100258002E292F292B298E018F01881D3429352914
:1002680031291C290811881488193B293C29382967
:10027800881D3F2940293C298819432944294029B8
:100288008E018F01881D49294A2946291C292108E0
:10029800003A031950295B292008013A0319082953
:1002A800033A03192129013A031936295B2923083E
:1002B800A1002208A0000800831203138C1D6529E1
:1002C80066299F290A128A11E4210A128A117008E4
:1002D800710403197029712979290A128A11562281
:1002E8000A128A118312031307150A128A11FA21B6
:1002F8000A128A1170037104031D832984298B292A
:100308000A128A1137220A128A11F9009C290A1244
:100318008A110F220A128A1170037104031D95298C
:1003280096299C2977080A128A1124220A128A110E
:10033800831203138C1176088A00750E8300FE0E53
:100348007E0E090083120313A0008316031387157A
:1003580007168030940083120313200883160313B2
:10036800930036308312031394000130831603136D
:1003780091008B170B17831203138C118316031329
:100388008C15080083160317880189018316031347
:100398000510851085150711871083120313850131
:1003A800860187018801831603130F178F160F160E
:1003B8000F1450300A128A11A6210A128A11080055
:1003C800831203131412F401F40A141BEC29ED2907
:1003D800F229941BF029F129F229F4017408F2009A
:1003E800F3017208F0007308F1000800F4018316A5
:1003F8000313941A002A012A072A1419042A052A21
:10040800072AF401F40A7408F200F3017208F000F4
:100418007308F1000800F40183160313941A152ACF
:10042800162A1C2A141D192A1A2A1C2AF401F40A4D
:100438007408F200F3017208F0007308F100080074
:10044800F0008312031313088316031314107008A3
:100458008312031393001416831603131418352AF2
:10046800362A302A0800831203131308831603134D
:10047800141C3F2A402A3A2A831203131308F00057
:1004880014169411700808008316031308118810B5
:1004980088158312031308118810901610169010EF
:1004A800101408008312031314121308141394135E
:0804B800141694110800FF3432
:08400000FF3FFF3FFF3FFF3FC0
:04400E00D420FF3F7C
:00000001FF
