:060000000A128A110C280F
:10000800FE00030EF6000A08F7000A128A111E28DD
:100018000A128A110F28F801F901FA01FB01FC0103
:10002800FD0183120313A401A501A60183010A128D
:100038008A116D28831203138C1D2328242859281C
:100048000A128A11DC200A128A1170087104031935
:100058002E282F2834280A128A1140210A128A11C0
:100068000A128A11F2200A128A1170037104031D00
:100078003E283F2845280A128A112F210A128A1180
:10008800FD000A128A1107210A128A1170037104ED
:10009800031D4F285028562878080A128A111C2157
:1000A8000A128A11831203138C110B1C5C285D2819
:1000B8006628061E6028612865280130F500750845
:1000C800F8070B1077088A00760E8300FE0E7E0E66
:1000D80009000A128A11BF200A128A118312031317
:1000E800A501F901A401F801A701A70A862885142A
:1000F8000510851D80288128832887148428871067
:100108007908A40083120313270303198C288D2868
:100118007B28063083120313A3001330A200AD30EE
:10012800A100A10B9528A20B9528A30B952886283A
:100138000A128A110C2883120313A00083160313D2
:10014800871507168030940083120313200883163E
:10015800031393003630831203139400013083167F
:10016800031391008B170B17831203138C1183163B
:1001780003138C1508008316031788018901831659
:100188000313051085108515871083120313850145
:10019800860187018801831603130F178F160F1620
:1001A8000F1450300A128A119F200A128A1108006F
:1001B800831203131412F401F40A141BE428E5282B
:1001C800EA28941BE828E928EA28F4017408F200D0
:1001D800F3017208F0007308F1000800F4018316B7
:1001E8000313941AF828F928FF281419FC28FD2865
:1001F800FF28F401F40A7408F200F3017208F00011
:100208007308F1000800F40183160313941A0D29EA
:100218000E291429141D112912291429F401F40A8C
:100228007408F200F3017208F0007308F100080086
:10023800F0008312031313088316031314107008B5
:1002480083120313930014168316031314182D290D
:100258002E29282908008312031313088316031371
:10026800141C372938293229831203131308F00084
:10027800141694117008080083120313141213083B
:0A02880014139413141694110800C7
:08400000FF3FFF3FFF3FFF3FC0
:04400E00D420FF3F7C
:00000001FF
