:060000000A128A110C280F
:10000800FE00030EF6000A08F7000A128A11F0280B
:100018000A128A110F28F801F901FA01FB01FC0103
:1000280083120313A701A801A901AA0183010A12D7
:100038008A111E280A128A1105220A128A110A1226
:100048008A1188220A128A11FA0183120313A7015E
:10005800F901F801AB01AB0AE52885140510013058
:10006800A0000030A1000A128A1188210A128A1100
:10007800831203132008AA000230A0000030A10058
:100088000A128A1188210A128A118312031320087E
:10009800A9000330A0000030A1000A128A118821AB
:1000A8000A128A11831203132008A8001D302A029D
:1000B800031C5F286028832828302A020318652833
:1000C800662883284D302902031C6B286C28832856
:1000D8005A302902031871287228832839302802D7
:1000E800031C7728782883285030280203187D2895
:1000F8007E2883280130A4002408FA07D7284F3027
:100108002A02031C88288928AC285C302A02031894
:100118008E288F28AC2835302902031C942895286E
:10012800AC284830290203189A289B28AC28393073
:100138002802031CA028A128AC2850302802031844
:10014800A628A728AC280130A4002408A707D72888
:1001580053302A02031CB128B228D52873302A024A
:100168000318B728B828D5283F302902031CBD2812
:10017800BE28D528523029020318C328C428D528F8
:1001880021302802031CC928CA28D528343028025F
:100198000318CF28D028D5280130A4002408F9074F
:1001A800D7282708F900033083120313A6008A30E2
:1001B800A5005530A400A40BDF28A50BDF28A60B4B
:1001C800DF28831203132B030319EB28EC283128AB
:1001D800E5280A128A110C28831203138C1DF528AE
:1001E800F62872290A128A1124220A128A11700822
:1001F800710403190029012906290A128A11952276
:100208000A128A110A128A113A220A128A117003F2
:100218007104031D1029112917290A128A1177223E
:100228000A128A11FC000A128A114F220A128A1134
:1002380070037104031D212922296F297C08031DDD
:10024800262927292E297A080A128A1164220A12D5
:100258008A116F297C03031D322933293C29831213
:10026800031327080A128A1164220A128A116F29B5
:1002780002307C06031D41294229492979080A12BE
:100288008A1164220A128A116F2903307C06031D21
:100298004E294F29562978080A128A1164220A120F
:1002A8008A116F2904307C06031D5B295C296329A8
:1002B80083120313AB018B11051085106F290530CC
:1002C8007C06031D682969296F2983120313AB0172
:1002D800AB0A8B156F29831203138C110B1C75291C
:1002E80076298129061E79297A297F290130F50086
:1002F8007508F807802906080B1077088A00760E1B
:100308008300FE0E7E0E090083120313A201A301CF
:10031800D029081188108819922993298F29881DB6
:1003280096299729932988199A299B2997298E0113
:100338008F01881DA029A1299D290F08A3000E0857
:10034800A200E029081588148819AB29AC29A82926
:10035800881DAF29B029AC298819B329B429B02937
:100368008E018F01881DB929BA29B629A12908113A
:1003780088148819C029C129BD29881DC429C529FF
:10038800C1298819C829C929C5298E018F01881D45
:10039800CE29CF29CB29A1292108003A0319D5292B
:1003A800E0292008013A03198D29033A0319A629DF
:1003B800013A0319BB29E0292308A1002208A0005B
:1003C800080083120313A00083160313871507166A
:1003D80080309400831203132008831603139300BC
:1003E80036308312031394000130831603139100EF
:1003F8008B170B17831203138C11831603138C1599
:100408000800831603178801890183160313051052
:10041800851006168312031385018601870188015A
:100428008B150B108316031316160F178F160F163E
:100438000F1450300A128A11E5210A128A11080095
:10044800831203131412F401F40A141B2C2A2D2A04
:10045800322A941B302A312A322AF4017408F20015
:10046800F3017208F0007308F1000800F401831624
:100478000313941A402A412A472A1419442A452A60
:10048800472AF401F40A7408F200F3017208F00034
:100498007308F1000800F40183160313941A552A0F
:1004A800562A5C2A141D592A5A2A5C2AF401F40A8D
:1004B8007408F200F3017208F0007308F1000800F4
:1004C800F000831203131308831603131410700823
:1004D8008312031393001416831603131418752A32
:1004E800762A702A0800831203131308831603134D
:1004F800141C7F2A802A7A2A831203131308F00017
:100508001416941170080800831603130811881034
:1005180088158312031308118810F83090001014FE
:1005280008008312031314121308141394131416D7
:040538009411080012
:08400000FF3FFF3FFF3FFF3FC0
:04400E00D420FF3F7C
:00000001FF
