:060000000A128A11EB2F29
:10000800F601F11F082809281028F009F109F00A5B
:100018000319F10AF601F60AF31F132814281D28FC
:10002800F209F309F20A0319F30A0130F40074081B
:10003800F606F701F8017008710403192428252829
:100048005C28F501F50A332801300310F00DF10D95
:10005800FF3E031D29280130F4007408F507F11F3D
:1000680036283728282801300310F70DF80DFF3EF1
:10007800031D382871087302031D44287008720292
:10008800031C472848284F287008F2027108031CEF
:10009800F303F302771401300310F10CF00CFF3E68
:1000A800031D50280130F502031D5B285C28372802
:1000B80076080319602861286628F709F809F70AFD
:1000C8000319F80A7808F1007708F00008000A1602
:1000D8008A1108250A128A1171300A168A113E25DA
:1000E8000A128A110A128A1542200A128A118312E8
:1000F8000313E9000A128A1542200A128A11831290
:100108000313AE00AF01B001B10131088316031328
:10011800BC0083120313300883160313BB00831239
:1001280003132F0883160313BA00831203132E0830
:1001380083160313B9000A128A1542200A128A117B
:1001480083120313AE00AF01B001B1013108831669
:100158000313B80083120313300883160313B70080
:10016800831203132F0883160313B6008312031395
:100178002E0883160313B5000A128A1542200A12A4
:100188008A1183120313AE00AF01B001B101310827
:1001980083160313B4008312031330088316031362
:1001A800B300831203132F0883160313B2008312BC
:1001B80003132E0883160313B1000A128A1542206E
:1001C8000A128A1183120313AE00AF01B001B10104
:1001D800310883160313C0008312031330088316F3
:1001E8000313BF00831203132F0883160313BE00E3
:1001F800831203132E0883160313BD000A128A15EF
:1002080042200A128A1183120313AE00AF01B00113
:10021800B101310883160313C40083120313300895
:1002280083160313C300831203132F0883160313C3
:10023800C200831203132E0883160313C1000A1683
:100248008A1126250A128A110A168A1112250A12FB
:100258008A1183160313310883120313AE00831621
:100268000313320883120313AF00831603133308F2
:1002780083120313B0008316031334088312031385
:10028800B10010300310AE0DAF0DB00DB10DFF3E33
:10029800031D4629310883160313B0008312031384
:1002A800300883160313AF00831203132F08831635
:1002B8000313AE00831203132E0883160313AD0035
:1002C8003D0883120313AE00831603133E088312FE
:1002D8000313AF00831603133F0883120313B00000
:1002E80083160313400883120313B1000830031068
:1002F800AE0DAF0DB00DB10DFF3E031D7B293108CA
:1003080083160313C00083120313300883160313E4
:10031800BF00831203132F0883160313BE00831232
:1003280003132E0883160313BD003D082D04831202
:100338000313AE00831603133E082E04831203131F
:10034800AF00831603133F082F0483120313B00072
:10035800831603134008300483120313B100831675
:1003680003134108831203132E0483160313C500D5
:100378004208831203132F0483160313C60043088D
:1003880083120313300483160313C700440883122F
:100398000313310483160313C800CE3083120313EA
:1003A800AE00FF30AF00FF30B000FF30B1000030CA
:1003B800F7000030F6000030F500C830F40083166E
:1003C8000313450883120313B20083160313460868
:1003D80083120313B300831603134708831203130E
:1003E800B40083160313480883120313B5001430AE
:1003F8000310B50CB40CB30CB20CFF3E031DFC2962
:100408003508F3003408F2003308F1003208F00030
:100418000A128A1576210A128A11700883120313A8
:10042800AE0771080318710F1A2A1B2AAF07720842
:100438000318720F202A212AB00773080318730AB9
:10044800B1073108A3003008A2002F08A1002E0828
:10045800A00000300A128A15EF230A128A118312AB
:100468000313230883160313AC0083120313220813
:1004780083160313AB008312031321088316031397
:10048800AA0083120313200883160313A900080087
:100498000A168A11D0250A128A110A128A15B3225D
:1004A8000A128A110A168A1131250A128A110A308B
:1004B800F40001300A128A15BC210A128A11303060
:1004C800F5008030F6000A128A15F0200A128A1107
:1004D80000300A168A11B8260A128A1100300A1644
:1004E8008A1172260A128A1100300A168A114F26BA
:1004F8000A128A1114300A168A112C260A128A1135
:1005080002300A168A1195260A128A1117300A161D
:100518008A11DB260A128A110A168A114A270A1238
:100528008A116E30F8006D30F9006F300A168A11A2
:10053800D1270A128A116B30F8006A30F9006C3042
:100548000A168A11A2270A128A110A168A11872501
:100558000A128A110A168A1176270A128A110A12B1
:100568008A116B200A128A110B30F40001300A122A
:100578008A15BC210A128A11831603132C088312C8
:100588000313A700831603132B0883120313A60073
:10059800831603132A0883120313A5008316031373
:1005A800290883120313A4004230A300C830A20014
:1005B8000030A1000030A0000A128A11A6240A12F5
:1005C8008A11831203132308BC002208BB002108E8
:1005D800BA002008B9003F30B8008030B7000030BA
:1005E800B6000030B5000A128A152D260A128A11A3
:1005F800831203133808D2003708D1003608D00018
:100608003508CF000A128A1577230A128A11831235
:1006180003135208E2005108E1005008E0004F08B7
:10062800DF000030F3000030F2000330F100E83062
:10063800F0006208F7006108F6006008F5005F083E
:10064800F4000A128A1511230A128A1170088312FB
:100658000313E7000030A3000030A2000030A1001F
:100668000A30A0000030F3000030F2000030F10042
:100678006430F0006208F7006108F6006008F500D1
:100688005F08F4000A128A1511230A128A117308E6
:1006980083120313A7007208A6007108A50070084A
:1006A800A4000A128A1502220A128A11831203135D
:1006B8002008E6000030A3000030A2000030A100AE
:1006C8000A30A0000030F3000030F2000030F100E2
:1006D8000A30F0006208F7006108F6006008F500CB
:1006E8005F08F4000A128A1511230A128A11730886
:1006F80083120313A7007208A6007108A5007008EA
:10070800A4000A128A1502220A128A1183120313FC
:100718002008E5000030A3000030A2000030A1004E
:100728000A30A0006208A7006108A6006008A500BA
:100738005F08A4000A128A1502220A128A1183127B
:1007480003132008E4002C30A000831603132C08A0
:1007580083120313A400831603132B0883120313B5
:10076800A300831603132A0883120313A200831617
:100778000313290883120313A100D1300A128A1522
:10078800A9240A128A11D130F5000030F6000A12A5
:100798008A15F0200A128A11E830F0000330F100BF
:1007A800831203136308D900DA015908F2005A08C2
:1007B800F3000A128A1104200A128A11700883169B
:1007C8000313D0000A30F9000030FA006430F0005A
:1007D8000030F100831203136308D900DA015908C5
:1007E800F2005A08F3000A128A1104200A128A1128
:1007F8007108FC007008FB000A128A1558220A12B8
:100808008A11790883160313CF000A30F9000030E3
:10081800FA000A30F0000030F10083120313630875
:10082800D900DA015908F2005A08F3000A128A11AD
:1008380004200A128A117108FC007008FB000A12D1
:100848008A1558220A128A11790883160313CE00D2
:100858000A30F9000030FA00831203136308D90044
:10086800DA015908FB005A08FC000A128A155822B6
:100878000A128A11790883160313CD00F401F40AC9
:1008880001300A128A15BC210A128A111D308312FE
:100898000313A0006D08D900DA015908A1005A080D
:1008A800A2006E08DB00DC015B08A3005C08A40062
:1008B8006F08DD00DE015D08A5005E08A600D130E6
:1008C8000A128A15A9240A128A11D130F5000030BB
:1008D800F6000A128A15F0200A128A11F401F40AA5
:1008E80002300A128A15BC210A128A110B308312AF
:1008F8000313A0006C08D900DA015908A1005A08AE
:10090800A2006B08DB00DC015B08A3005C08A40004
:100918006A08DD00DE015D08A5005E08A600D1308A
:100928000A128A15A9240A128A11D130F50000305A
:10093800F6000A128A15F0200A128A11952A0A125C
:100948008A1100288312031323088039A80023087A
:10095800F9007907AE00A21FB22CB32CB42C2E14C8
:100968002E080319B82CB92CC82C2E0A031DBD2C2F
:10097800BE2CC62C0030A3000030A2000030A1001D
:100988000030A000A217D02C0030A3000030A20035
:100998000030A1000030A00027088039F90079084C
:1009A800A8062708F9007907AD00A61FDC2CDD2C66
:1009B800DE2C2D142D080319E22CE32CF22C2D0A21
:1009C800031DE72CE82CF02C0030A7000030A6000F
:1009D8000030A5000030A400A617FA2C0030A700AC
:1009E8000030A6000030A5000030A4002D0803192F
:1009F800FE2CFF2C042D2E08031D032D042D0D2D78
:100A08000030A3000030A2000030A1000030A00098
:100A1800EA2F2008F00026080A168A1123270A124E
:100A28008A11710883120313B4007008B3003308E5
:100A3800F900FA01FB01FC017C08AC007B08AB0063
:100A48007A08AA007908A9003408F900FA01FB011C
:100A5800FC017C08B2007B08B1007A08B000790874
:100A6800AF002108F00025080A168A1123270A1268
:100A78008A11710883120313B4007008B300330895
:100A8800F900FA01FB01FC017908A9077A080311AA
:100A98000318013E0319512DAA077B0803110318F7
:100AA800013E0319582DAB077C0803110318013EBA
:100AB80003195F2DAC073408F900FA01FB01FC01AA
:100AC8007908AF077A0803110318013E03196D2D41
:100AD800B0077B0803110318013E0319742DB107F1
:100AE8007C0803110318013E03197B2DB207220865
:100AF800F00024080A168A1123270A128A1171089D
:100B080083120313B4007008B3003308F900FA0124
:100B1800FB01FC017908A9077A0803110318013EB3
:100B28000319972DAA077B0803110318013E03191F
:100B38009E2DAB077C0803110318013E0319A52D50
:100B4800AC073408F900FA01FB01FC017908AF078A
:100B58007A0803110318013E0319B32DB0077B0867
:100B680003110318013E0319BA2DB1077C080311BC
:100B78000318013E0319C12DB2070830F90003100C
:100B8800A90DAA0DAB0DAC0DF90BC32D2108F00072
:100B980024080A168A1123270A128A117108831257
:100BA8000313B4007008B3003308F9003408FA00DE
:100BB800FB01FC017908A9077A0803110318013E13
:100BC8000319E72DAA077B0803110318013E03192F
:100BD800EE2DAB077C0803110318013E0319F52D10
:100BE800AC072008F00025080A168A1123270A12E4
:100BF8008A11710883120313B4007008B300330814
:100C0800F9003408FA00FB01FC017908A9077A0801
:100C180003110318013E0319122EAA077B080311BA
:100C28000318013E0319192EAB077C08031103189A
:100C3800013E0319202EAC070830F9000310A90D56
:100C4800AA0DAB0DAC0DF90B222E2008F0002408DC
:100C58000A168A1123270A128A11710883120313AC
:100C6800B4007008B3003308F9003408FA00FB0137
:100C7800FC017908A9077A0803110318013E031932
:100C8800462EAA077B0803110318013E03194D2EAF
:100C9800AB077C0803110318013E0319542EAC0757
:100CA8002108F00026080A168A1123270A128A1139
:100CB800710883120313B4007008B3003308F900F5
:100CC8003408FA00FB01FC017908AF077A08031120
:100CD8000318013E0319712EB0077B08031103188E
:100CE800013E0319782EB1077C0803110318013E51
:100CF80003197F2EB2072208F00025080A168A1168
:100D080023270A128A11710883120313B40070088A
:100D1800B3003308F9003408FA00FB01FC01790834
:100D2800AF077A0803110318013E03199C2EB00778
:100D38007B0803110318013E0319A32EB1077C0891
:100D480003110318013E0319AA2EB2072208F00066
:100D580026080A168A1123270A128A117108831293
:100D68000313B4007008B3003308F9003408FA001C
:100D7800FB01FC0108300310F90DFA0DFB0DFC0D09
:100D8800FF3E031DBF2E7908AF077A080311031829
:100D9800013E0319D02EB0077B0803110318013E4A
:100DA8000319D72EB1077C0803110318013E031954
:100DB800DE2EB2072908F9002A08FA002B08FB00E2
:100DC8002C08FC0018300310FC0CFB0CFA0CF90C76
:100DD800FF3E031DE72E7908AF077A0803110318B1
:100DE800013E0319F82EB0077B0803110318013ED2
:100DF8000319FF2EB1077C0803110318013E0319DC
:100E0800062FB2070830F9000310A90DAA0DAB0D83
:100E1800AC0DF90B082F2E082D07F900FA01FA0D71
:100E28007908823EB3007A080318013EFF3EB400F9
:100E38003A2F0130F9000310AF0DB00DB10DB20D0E
:100E4800F90B1F2FAC1F292F2A2F2B2F2F140130FE
:100E5800F9000310A90DAA0DAB0DAC0DF90B2D2F40
:100E6800FF30B3070318B40AFF30B407B11F3D2F92
:100E78003E2F1D2FAD01AC1F422F432F5F2FFF3098
:100E88002905F900FF302A05FA00FF302B05FB0081
:100E98007F302C05FC007C087B047A047904031954
:100EA800562F572F5A2FAD01AD0A5F2F2F1C5D2FDC
:100EB8005E2F5F2F572F2D080319632F642F952F4F
:100EC8000130AF07003003180130B00700300318B5
:100ED8000130B107003003180130B207321C752FFA
:100EE800762F952F2F08F9003008FA003108FB00FB
:100EF8003208FC000130FD007C0DFC0CFB0CFA0CE8
:100F0800F90CFD0B802F7C08B2007B08B1007A0831
:100F1800B0007908AF000130B3070318B40A0030F5
:100F2800B4073408803AFF0080307F02031D9E2FEB
:100F3800FF303302031CA12FA22FAD2F7F30831265
:100F48000313B2008030B1000030B0000030AF00B1
:100F5800DE2F831203133408803AFF0080307F02AB
:100F6800031DB82F013033020318BB2FBC2FC82F25
:100F7800003083120313B2000030B1000030B0001B
:100F88000030AF00A801DE2F831203133308AE0030
:100F9800FF30AF05FF30B0057F30B1050030B20536
:100FA8002E1CD72FD82FD92FB1172E08F9000310D0
:100FB800790CB2002808F9007908B2043208A300B5
:100FC8003108A2003008A1002F08A00008008313F0
:100FD8005F30840070300A168A1100250A128A11BF
:100FE800A0308400E5300A168A1100250A128A11F9
:100FF80083010A128A114C2AFF1B0A2883137F18BF
:1010080083170008840A0319FF0A080008308A00B9
:101018000408840A82070034013400340A34003496
:1010280064340034E834033410342734253430343D
:10103800323475342F3425343034323475342F3407
:10104800323430342534303432347534203400347A
:1010580025343034323475343A342534303432342B
:1010680075343A3425343034323475340034253408
:1010780075342034003454343A340034831603135E
:10108800911583128C1D49284A2845288C1113086C
:101098000800F2000A168A1108250A128A15D030AB
:1010A8000A168A113E250A128A1572080A168A112A
:1010B8003E250A128A150A168A111C250A128A1553
:1010C800D1300A168A113E250A128A150A128A1583
:1010D80042200A128A15F3000A168A1126250A12D6
:1010E8008A150A168A1112250A128A150630F10085
:1010F800F10B7C28000073080800F40074080F390D
:10110800F2007408F039F300831203130817730808
:10111800F10004300310F10CFF3E031D8E28710806
:101128000A168A110A260A128A15831203138817C7
:101138001A30F100F10B9E28000083120313881364
:1011480072080A168A110A260A128A1583120313CC
:1011580088171A30F100F10BAF280000831203132F
:1011680088130800780879040319BB28BC28EB28E1
:10117800FD01FD0ACA2801300310F80DF90DFF3EE4
:10118800031DC0280130FC007C08FD07F91FCD288D
:10119800CE28BF2879087B02031DD42878087A0254
:1011A800031CD728D828DE287808FA027908031CF7
:1011B800FB03FB0201300310F90CF80CFF3E031D82
:1011C800DF280130FD02031DEA28EB28CE287B0822
:1011D800F9007A08F8000800FA01FB0115297A08D5
:1011E8007507F8007608F7000318F70AFA1FFD28B4
:1011F800F7037708F900790883120313FF007808CA
:1012080084000A128A1500200A128A150A128A1501
:1012180081200A128A150130FA070318FB0A0030E8
:10122800FB077A087507F8007608F7000318F70A2D
:10123800FA1F1F29F7037708F900790883120313A7
:10124800FF00780884000A128A1500200A128A15FD
:10125800003A031D30293129F3280800F501F60169
:1012680070087104031939293A297129F701F70A15
:10127800482901300310F00DF10DFF3E031D3E29F2
:101288000130F4007408F707F11F4B294C293D2958
:1012980001300310F50DF60DFF3E031D4D297108B1
:1012A8007302031D592970087202031C5C295D2909
:1012B80064297008F2027108031CF303F302751421
:1012C80001300310F10CF00CFF3E031D65290130BD
:1012D800F702031D702971294C297608F100750859
:1012E800F00008000030FC000030FB000030FA007D
:1012F8000030F900701C8129822999297408F9079E
:10130800750803110318013E03198B29FA0776089B
:1013180003110318013E03199229FB0777080311EB
:101328000318013E03199929FC070130F80003103E
:10133800F40DF50DF60DF70DF80B9B290130031090
:10134800F30CF20CF10CF00CFF3E031DA3297308FB
:10135800720471047004031DB229B3297E297C0824
:10136800F3007B08F2007A08F1007908F000080021
:10137800F6007603031DC129C229DF2974087F3EC0
:10138800F9007908F50004300310F50CFF3E031D41
:10139800C8297508F70079080F39F80077080A1680
:1013A8008A11B6250A128A1578080A168A11B625EE
:1013B8000A128A15012A02307606031DE429E52956
:1013C800012A7408BF3EF9007908F50004300310BB
:1013D800F50CFF3E031DEB297508F70079080F3956
:1013E800F80077080A168A11B6250A128A157808AD
:1013F8000A168A11B6250A128A15080083120313E1
:10140800230822042104200403190B2A0C2A4F2A3A
:10141800A901A90A1C2A0130A8000310A00DA10DDA
:10142800A20DA30DA80B112A0130A8002808A907AE
:10143800A31F1F2A202A0F2A23082702031D2E2A4A
:1014480022082602031D2E2A21082502031D2E2A02
:1014580020082402031C312A322A402A2008A40228
:101468002108031C210FA5022208031C220FA60233
:101478002308031C230FA70201300310A30CA20C9E
:10148800A10CA00CFF3E031D412A0130A902031D37
:101498004E2A4F2A202A2708A3002608A20025083A
:1014A800A1002408A000080083120313A101FC1F57
:1014B8005E2A5F2A662AFB09FC09FB0A0319FC0A53
:1014C800A101A10AFA1F692A6A2A6F2AF909FA09E9
:1014D800F90A0319FA0A79087A040319742A752A89
:1014E800A42AA001A00A832A01300310F90DFA0DDD
:1014F800FF3E031D792A0130FD007D08A007FA1F71
:10150800862A872A782A7A087C02031D8D2A790878
:101518007B02031C902A912A972A7908FB027A08F1
:10152800031CFC03FC0201300310FA0CF90CFF3E0B
:10153800031D982A0130A002031DA32AA42A872A82
:1015480021080319A82AA92AAE2AFB09FC09FB0AC3
:101558000319FC0A7C08FA007B08F900080000302F
:101568000A168A110A260A128A153430F500F13053
:10157800F400F40BBD2AF50BBD2AC22A03300A1663
:101588008A11B6250A128A150D30F500FB30F400D1
:10159800F40BCC2AF50BCC2AD12A03300A168A116F
:1015A800B6250A128A158530F400F40BD92A0330BF
:1015B8000A168A11B6250A128A1502300A168A11E5
:1015C800B6250A128A1502300A168A11B6250A1299
:1015D8008A1508300A168A11B6250A128A150030AB
:1015E8000A168A11B6250A128A150C300A168A11AB
:1015F800B6250A128A1500300A168A11B6250A126B
:101608008A1506300A168A11B6250A128A1542303A
:10161800F400F40B0D2B000008000030FC00003033
:10162800FB000030FA000030F900730872047104FE
:1016380070040319202B212B6E2BFD01FD0A312B81
:101648000130F8000310F00DF10DF20DF30DF80B59
:10165800262B0130F8007808FD07F31F342B352BB3
:10166800242B0130F8000310F90DFA0DFB0DFC0DC9
:10167800F80B372B73087702031D4C2B7208760280
:10168800031D4C2B71087502031D4C2B7008740246
:10169800031C4F2B502B5F2B7008F4027108031C9E
:1016A800710FF5027208031C720FF6027308031C0F
:1016B800730FF702791401300310F30CF20CF10CDC
:1016C800F00CFF3E031D602B0130FD02031D6D2B46
:1016D8006E2B352B7C08F3007B08F2007A08F100AA
:1016E8007908F0000800031083120313510D520DFE
:1016F800D8005808031D812B822B8B2B0030D20079
:101708000030D1000030D0000030CF00EE2B4F0861
:10171800D3005008D4005108D5005208D6001F3015
:101728000310D60CD50CD40CD30CFF3E031D942B00
:101738005308D700D117FF30CF05FF30D005FF3051
:10174800D1050030D2059630D802D81FAC2BAD2B6E
:10175800C72B5808803A973E0318B32BB42BB52BE8
:10176800822B01300310D20CD10CD00CCF0CFF3ED1
:10177800031DB62B0130D3005308D807031DC52B12
:10178800C62BB52BDE2B20305802031CCC2BCD2BBF
:10179800D92B822B0130D3000310CF0DD00DD10DE2
:1017A800D20DD30BD02B0130D8025808031DDD2BE6
:1017B800DE2BCE2B57080319E22BE32BEE2BCF0998
:1017C800D009D109D209CF0A0319D00A0319D10ABD
:1017D8000319D20A080083120313A8002808031962
:1017E800F62BF72B0B2CA31FFA2BFB2B0B2C20090A
:1017F800AA002109AB002209AC002309AD00AA0AFE
:101808000319AB0A0319AC0A0319AD0A132C2308F0
:10181800AD002208AC002108AB002008AA0023086C
:10182800220421042004031D1A2C1B2C242C003014
:10183800A3000030A2000030A1000030A000A82CB6
:101848009630A900342C0130A4002408A9070130DF
:101858000310AD0CAC0CAB0CAA0CFF3E031D2C2CDA
:10186800FE302D05031D392C3A2C272C562C01301F
:10187800A4002408A9070130AA0700300318013082
:10188800AB07003003180130AC07003003180130F3
:10189800AD0701300310AD0CAC0CAB0CAA0CFF3E2D
:1018A800031D4E2CFF302D05031D5B2C5C2C3B2C9F
:1018B800682C0130A9020130A4000310AA0DAB0D59
:1018C800AC0DAD0DA40B612CAC1B6B2C6C2C722CCD
:1018D800023029020318712C722C5D2C2918752CE2
:1018E800762C7E2CFF30AA05FF30AB057F30AC0587
:1018F800FF30AD050310A90C2908A400A501A60115
:10190800A70118300310A40DA50DA60DA70DFF3EC5
:10191800031D862C2408AA042508AB042608AC0459
:101928002708AD04280803199A2C9B2CA02CA31F68
:101938009E2C9F2CA02CAD172D08A3002C08A200CC
:101948002B08A1002A08A000080083120313AF0087
:101958002130AA00182E253032060319B42CB52CD4
:10196800BF2C2F0884003208831380000130A700A1
:101978002708AF07182EB001B101AB01C82C2B15F1
:101988000130A7002708A007200884000A128A153A
:101998000A200A128A15A700A8012808003A031984
:1019A800D62CDB2C2708303A0319C32CDB2C200853
:1019B80084000A128A150A200A128A150A168A1140
:1019C8004C250A128A15031CEA2CEB2C312D8312A4
:1019D8000313B001B1010A30F0000030F1008312A6
:1019E80003133108F3003008F2000A168A11FE26A4
:1019F8000A128A15710883120313B1007008B00027
:101A0800200884000A128A150A200A128A15D03E74
:101A1800A700FF3003180030A8002708B0070318F4
:101A2800B10A2808B1070130A7002708A007200835
:101A380084000A128A150A200A128A150A168A11BF
:101A48004C250A128A1503182A2D2B2DEF2C312D1F
:101A5800C030A7002708AB044D2D013083120313B3
:101A6800A007FF30200784000A128A150A200A12EC
:101A78008A15B200A700A8012808003A0319452DC5
:101A8800182E2708003A0319282E753A03192C2D09
:101A9800182E2A08840083130008AC00840A000862
:101AA800AD000230A7002708AA07B201B20A32081F
:101AB800A7002707013E84000A128A150A200A1285
:101AC8008A15A8000A128A150A200A128A15A9007E
:101AD80029082D02031D722D28082C020318752DC4
:101AE800762D772D812D0130A7002708B207053004
:101AF8003206031D802D812D5B2D3108803A803CF4
:101B0800031D882D3008320203188B2D8C2D982D3B
:101B1800831203133208A700A8012708B002280877
:101B2800031CB103B1029C2D83120313B001B10150
:101B38002B1D9F2DA02DBC2D300831040319A52D78
:101B4800A62DD72D2F088400303083138000013054
:101B5800A7002708AF07FF30B0070318B10AFF3006
:101B6800B10730083104031DBA2DBB2DA62DD72D82
:101B7800300831040319C12DC22DD72D2F08840038
:101B88002030831380000130A7002708AF07FF30FB
:101B9800B0070318B10AFF30B10730083104031D3C
:101BA800D62DD72DC22D3208AE000F2E0A30F800E0
:101BB8000030F9002E08A7002707013E84000A120A
:101BC8008A150A200A128A15F0000A128A150A20B4
:101BD8000A128A15F1002D08F3002C08F2000A12E7
:101BE8008A1532210A128A157108FB007008FA005A
:101BF8000A128A15B6200A128A157808303E83120E
:101C08000313B2002F0884003208831380000130C8
:101C1800A7002708AF07FF30A7002708AE072E0A3E
:101C2800031D172E182EDA2D0130A007FF302007CC
:101C380084000A128A150A200A128A15B20032088C
:101C4800031D272E282EAF2C2F0884008313800114
:101C58000800831203133C088039C6003C08BD0005
:101C68003D07CD00BB1F392E3A2E3B2E4D144D0893
:101C780003193F2E402E502E4D0A031D442E452E8B
:101C88004D2E0030BC000030BB000030BA000030E0
:101C9800B900BB17BC01582E0030BC000030BB0097
:101CA8000030BA000030B90038088039BD003D085E
:101CB800C6063808BD003D07CE00B71F642E652E46
:101CC800662E4E144E0803196A2E6B2E7B2E4E0A72
:101CD800031D6F2E702E782E0030B8000030B7002C
:101CE8000030B6000030B500B717B801832E0030B9
:101CF800B8000030B7000030B6000030B500380832
:101D0800370436043504031D8A2E8B2EA42E00308A
:101D1800BC000030BB000030BA000030B900803091
:101D2800BB047F30BC044608BD003D08BC043C0829
:101D3800B8003B08B7003A08B6003908B500FF2FCD
:101D48004D08031DA82EA92EB22E0030B800003071
:101D5800B7000030B6000030B500FF2F4D08BD00B9
:101D6800BE013E08C0004E083D02BF00031CC00370
:101D78003F087F3EC70040080318013E003EC800E8
:101D88003C08C5003B08C4003A08C3003908C20033
:101D98000030BC000030BB000030BA000030B90091
:101DA8000030CC000030CB000030CA000030C90041
:101DB800CE01282F4E080319E22EE32E032F0130FF
:101DC800BD000310C20DC30DC40DC50DBD0BE52E1E
:101DD8000130BD000310B90DBA0DBB0DBC0DBD0B14
:101DE800EE2ECC1FF82EF92EFA2E39140130BD0034
:101DF8000310C90DCA0DCB0DCC0DBD0BFC2E380838
:101E08004502031D112F37084402031D112F360800
:101E18004302031D112F35084202031C142F152FEE
:101E2800242F4C173508C2023608031C360FC3028C
:101E38003708031C370FC4023808031C380FC502C3
:101E48000130BD003D08CE071A304E02031C2D2F6D
:101E58002E2FDE2E45084404430442040319352F6F
:101E6800362F552F4914552F0130BD000310B90DD9
:101E7800BA0DBB0DBC0DBD0B3A2FCC1F442F452FFF
:101E8800462F39140130BD000310C90DCA0DCB0D02
:101E9800CC0DBD0B482FFF30C7070318C80AFF3009
:101EA800C807BB1F582F592F382FCE01CC1F5D2FC5
:101EB8005E2F7A2FFF304905BD00FF304A05BE006E
:101EC800FF304B05BF007F304C05C00040083F0481
:101ED8003E043D040319712F722F752FCE01CE0ACF
:101EE8007A2F391C782F792F7A2F722F4E080319E1
:101EF8007E2F7F2FB02F0130B90700300318013033
:101F0800BA07003003180130BB070030031801304E
:101F1800BC073C1C902F912FB02F3908BD003A0800
:101F2800BE003B08BF003C08C0000130C100400DA6
:101F3800C00CBF0CBE0CBD0CC10B9B2F4008BC00D5
:101F48003F08BB003E08BA003D08B9000130C7078A
:101F58000318C80A0030C8074808803AFF008030D4
:101F68007F02031DB92FFF304702031CBC2FBD2F72
:101F7800CB2FFF3083120313C7000030C800003096
:101F8800BC000030BB000030BA000030B90083123A
:101F980003134808803AFF0080307F02031DD62FC4
:101FA800013047020318D92FDA2FE72F83120313C2
:101FB800C701C8010030BC000030BB000030BA00C7
:101FC8000030B900C601831203134708CD004D1C29
:101FD800EE2FEF2FF12FBB17F52F7F30BD003D08F7
:101FE800BB054D08BD0003103D0CBC004608BD00F4
:081FF8003D08BC049B2E08000B
:102A000064008001840A0406031900340406012DC1
:102A100083160313111483128C1D0F2D102D0B2DF3
:102A20008C11080083160313111583128C1D192DA8
:102A30001A2D152D8C11080083160313911483127F
:102A40008C1D232D242D1F2D8C110800831603139C
:102A50009116111683128C1D2E2D2F2D2A2D8C11BF
:102A6000080000300A168A11B6250A168A110130AC
:102A70000A168A11B6250A168A110800F000700895
:102A80008312031393008C1D462D472D432D8C116B
:102A90008316031311080800F100F0013A307102A7
:102AA0000318532D542D5C2D30307102031C592D09
:102AB0005A2D5C2DF001F00A700C0800F000F101B5
:102AC0000A307002031C652D662D6D2D7008F63ED0
:102AD000F0007108103EF100602D70087107F100E0
:102AE00071080800F300F201731C772D782D7C2DFE
:102AF0007008F1007108F2070310F00D0310F30CD9
:102B00007308031D842D852D742D720808000A1684
:102B10008A1108250A168A1170300A168A113E2574
:102B20000A168A11BA300A168A113E250A168A1127
:102B30000A168A1112250A168A110800F7000F30AA
:102B40007705F4000A30F0007708F5000430031030
:102B5000F50CFF3E031DA72D75080A168A11722574
:102B60000A168A117407F60076080800F30083122B
:102B70000313081373080A168A110A260A168A1103
:102B80008312031388170B30F2006230F100F10B4F
:102B9000C72DF20BC72D0000831203138813080002
:102BA00083160317880189018316031386018801A0
:102BB000831203138501860187018801831603139D
:102BC0000F178F160F160F1480300A168A11EB2577
:102BD0000A168A110800F0008316031387150716DA
:102BE0007008940028308312031394008316031393
:102BF000910180307006031DFE2DFF2D022E133033
:102C00009300092E7008031D062E072E092E1D3075
:102C100093000800F000701C0E2E0F2E132E83124E
:102C200003130616162E831203130612F01C192E18
:102C30001A2E1C2E86161D2E8612701D202E212E59
:102C4000232E0617242E0613F01D272E282E2A2E9B
:102C500086172B2E86130800F2000A168A11082503
:102C60000A168A11D0300A168A113E250A168A11D0
:102C700004300A168A113E250A168A1172080A16AD
:102C80008A115E250A168A110A168A113E250A162D
:102C90008A110A168A1112250A168A110800F200F2
:102CA0000A168A1108250A168A11D0300A168A11C6
:102CB0003E250A168A1102300A168A113E250A1686
:102CC0008A1172080A168A115E250A168A110A16D6
:102CD0008A113E250A168A110A168A1112250A1629
:102CE0008A110800F2000A168A1108250A168A11AC
:102CF000D0300A168A113E250A168A1101300A16AA
:102D00008A113E250A168A1172080A168A115E2552
:102D10000A168A110A168A113E250A168A110A16FF
:102D20008A1112250A168A110800F2000A168A1161
:102D300008250A168A11D0300A168A113E250A166D
:102D40008A1105300A168A113E250A168A11720860
:102D50000A168A115E250A168A110A168A113E255C
:102D60000A168A110A168A1112250A168A110800F3
:102D7000F2000A168A1108250A168A11D0300A169E
:102D80008A113E250A168A1100300A168A113E253C
:102D90000A168A1172080A168A115E250A168A1105
:102DA0000A168A113E250A168A110A168A11122558
:102DB0000A168A110800F2000A168A1108250A1656
:102DC0008A11D0300A168A113E250A168A11063059
:102DD0000A168A113E250A168A1172080A168A11E5
:102DE0005E250A168A110A168A113E250A168A11CC
:102DF0000A168A1112250A168A110800F401F50133
:102E0000701C032F042F0A2F7208F4070318F50A09
:102E10007308F50701300310F20DF30DFF3E031D9B
:102E20000B2F01300310F10CF00CFF3E031D122F8D
:102E300070087104031D1D2F1E2F002F7508F1004F
:102E40007408F0000800F800F401F5017008F200C1
:102E5000F3017208F6007308F700781C302F312F49
:102E6000372F7608F4070318F50A7708F5070130BD
:102E70000310F60DF70DFF3E031D382F0310F80C5D
:102E80007808031D442F452F2D2F7508F100740875
:102E9000F00008000A168A1108250A168A117030F7
:102EA0000A168A113E250A168A11E1300A168A117D
:102EB0003E250A168A1108300A168A113E250A167E
:102EC0008A1100300A168A113E250A168A110A163E
:102ED0008A1112250A168A111A30F200F830F10010
:102EE000F10B702FF20B702F000008000A168A11E8
:102EF00008250A168A1170300A168A113E250A160C
:102F00008A11AC300A168A113E250A168A1133300E
:102F10000A168A113E250A168A1100300A168A11ED
:102F20003E250A168A110A168A1112250A168A11D6
:102F3000D030F200C930F100F10B9C2FF20B9C2F26
:102F4000A12F0800FA007A08840004300A128A15BA
:102F50004D200A168A110A168A119E250A168A1110
:102F6000831380007808840005300A128A154D20EA
:102F70000A168A110A168A119E250A168A118313C7
:102F800080007908840006300A128A154D200A163E
:102F90008A110A168A119E250A168A118313800047
:102FA0000800FA007A08840000300A128A154D20C1
:102FB0000A168A110A168A119E250A168A11831387
:102FC00080007808840001300A128A154D200A1604
:102FD0008A110A168A119E250A168A118313800007
:102FE0007908840002300A128A154D200A168A11C7
:102FF0000A168A119E250A168A118313800008007A
:08400000FF3FFF3FFF3FFF3FC0
:04400E00D420FF3F7C
:00000001FF
