:060000000A128A110C280F
:10000800FE00030EF5000A08F6000A168A110729F1
:100018000A128A110F28F801F901FA01FB01FC0103
:10002800FD018313D2308400F0300A168A15712737
:100038000A128A11831790308400C2300A168A1572
:1000480071270A128A111030840040300A168A1566
:1000580071270A128A1183010A168A11C22E831681
:1000680003132508013EAD00003003180130AE002F
:10007800B101B201230883120313A30083160313EB
:10008800220883120313A200831603132108831284
:100098000313A10083160313200883120313A0007F
:1000A8000030A7000030A6000030A5000030A400F2
:1000B8000A168A1164250A128A1103186428652809
:1000C800A32883160313240884002D308317800087
:1000D8000130A6002608A407230883120313A300EF
:1000E80083160313220883120313A2008316031333
:1000F800210883120313A100831603132008831217
:100108000313A0000A168A15BB270A128A11831244
:100118000313230883160313A3008312031322086F
:1001280083160313A20083120313210883160313F3
:10013800A10083120313200883160313A0000030C4
:1001480083120313A3000030A2000030A100003086
:10015800A00083160313230883120313A700831632
:100168000313220883120313A6008316031321081E
:1001780083120313A50083160313200883120313A5
:10018800A4000A168A1164250A128A110318CD28B8
:10019800CE2883291429413083120313BD0020304F
:1001A800BC000030BB000030BA00831603132308DC
:1001B80083120313C1008316031322088312031347
:1001C800C00083160313210883120313BF0083168C
:1001D8000313200883120313BE000A128A1139245C
:1001E8000A128A11831203133D0883160313A3000E
:1001F800831203133C0883160313A200831203130C
:100208003B0883160313A100831203133A088316CD
:100218000313A000FF30B1070318B20AFF30B2077A
:1002280083160313230883120313A30083160313EF
:10023800220883120313A2008316031321088312D2
:100248000313A10083160313200883120313A000CD
:100258003F30A7008030A6000030A5000030A40081
:100268000A168A1164250A128A11031C3C293D29A1
:10027800CF288329413083120313A3002030A20022
:100288000030A1000030A000831603132308831256
:100298000313A70083160313220883120313A6006F
:1002A80083160313210883120313A500831603136F
:1002B800200883120313A4000A128A15D5230A12F0
:1002C8008A1183120313230883160313A3008312CE
:1002D8000313220883160313A200831203132108B1
:1002E80083160313A1008312031320088316031334
:1002F800A0000130B1070318B20A0030B207831614
:100308000313230883120313A3008316031322087D
:1003180083120313A2008316031321088312031305
:10032800A10083160313200883120313A000413091
:10033800A7002030A6000030A5000030A4000A164F
:100348008A1164250A128A110318AB29AC293E299F
:100358008316031331082D07AD0032080318320A3B
:100368002E07AE000130AF000030B0002F08831216
:100378000313A00083160313300883120313A1008C
:100388000030A11BFF30A200A30001300A168A1119
:1003980008260A128A1183120313230883160313EB
:1003A800AC0083120313220883160313AB008312D5
:1003B8000313210883160313AA00831203132008CA
:1003C80083160313A9002D2A413083120313A300B7
:1003D8002030A2000030A1000030A00083160313D3
:1003E8002C0883120313A700831603132B08831208
:1003F8000313A600831603132A0883120313A50008
:1004080083160313290883120313A4000A128A15FA
:10041800D5230A128A1183120313230883160313A0
:10042800AC0083120313220883160313AB00831254
:100438000313210883160313AA0083120313200849
:1004480083160313A9000130AF070318B00A003060
:10045800B0073008803AA6002E08803A2602031D0D
:10046800372A2D082F02031C3A2A3B2AE82983162B
:1004780003132C0883120313A700831603132B08F6
:1004880083120313A600831603132A088312031387
:10049800A50083160313290883120313A400403010
:1004A800A3000030A2000030A1000030A0000A1212
:1004B8008A15D5230A128A11831203132308D70039
:1004C8002208D6002108D5002008D400831603137B
:1004D800230883120313DB008316031322088312F5
:1004E8000313DA0083160313210883120313D900B8
:1004F80083160313200883120313D8000A128A15DF
:10050800A8250A128A1183120313570883160313A6
:10051800A30083120313560883160313A200831241
:100528000313550883160313A100831203135408F9
:1005380083160313A000230883120313A300831652
:100548000313220883120313A2008316031321083E
:1005580083120313A10083160313200883120313C5
:10056800A0004130A7002030A6000030A5000030D0
:10057800A4000A168A1164250A128A11031CC52AC6
:10058800C62AD62A3F3083160313A3008030A20060
:100598000030A1000030A0000130B1070318B20AF2
:1005A8000030B20783160313B21FDB2ADC2A1D2B87
:1005B800240884003030831780000130A600260804
:1005C800A407240884002E3080000130A6002608E5
:1005D800A407AE1FF02AF12AF92A2D083102B1002A
:1005E8002E08031C2E0A3202B200FF30AF00FF3083
:1005F800B0000F2B831603132408840030308317B0
:1006080080000130A6002608A407FF30AF070318B2
:10061800B00AFF30B0073208803AA6003008803AA6
:100628002602031D192B2F083102031C1C2B1D2B1E
:10063800FE2A83160313AF01B001242C831603137B
:10064800230883120313A3008316031322088312BB
:100658000313A20083160313210883120313A100B6
:1006680083160313200883120313A0000A128A11A9
:100678007E270A128A118312031321088316031393
:10068800A80083120313200883160313A700240865
:1006980084002708303E831780000130A600260812
:1006A800A40732083006031D5B2B31082F06031DF3
:1006B8005E2B5F2B672B240884002E3080000130CE
:1006C800A6002608A407270883120313A000831690
:1006D8000313280883120313A1000030A11BFF3065
:1006E800A200A30001300A168A1108260A128A11EC
:1006F80083120313230883160313AC008312031316
:10070800220883160313AB008312031321088316F0
:100718000313AA0083120313200883160313A900E6
:100728002C0883120313EB00831603132B08831280
:100738000313EA00831603132A0883120313E9003C
:1007480083160313290883120313E800831603137F
:10075800230883120313EF0083160313220883125E
:100768000313EE0083160313210883120313ED000D
:1007780083160313200883120313EC000A168A1148
:100788002B210A128A11831203136B088316031391
:10079800A300831203136A0883160313A2008312AB
:1007A8000313690883160313A1008312031368084F
:1007B80083160313A000413083120313BD002030B9
:1007C800BC000030BB000030BA00831603132308B6
:1007D80083120313C1008316031322088312031321
:1007E800C00083160313210883120313BF00831666
:1007F8000313200883120313BE000A128A11392436
:100808000A128A11831203133D0883160313A300E7
:10081800831203133C0883160313A20083120313E5
:100828003B0883160313A100831203133A088316A7
:100838000313A0000130AF070318B00A0030B00757
:100848003008803AA6002E08803A2602031D2E2C76
:100858002D082F02031C312C322C222B8316031354
:1008680024088400831780010800831203133D08BD
:100878008039C7003D08C2004207CD00BC1F452C87
:10088800462C472C4D144D0803194B2C4C2C5B2C33
:100898004D0A031D502C512C592C0030BD0000303E
:1008A800BC000030BB000030BA00BC17632C00301D
:1008B800BD000030BC000030BB000030BA00410869
:1008C8008039C2004208C7064108C2004207CC006E
:1008D800C01F6F2C702C712C4C144C080319752CEC
:1008E800762C852C4C0A031D7A2C7B2C832C00300B
:1008F800C1000030C0000030BF000030BE00C0178B
:100908008D2C0030C1000030C0000030BF00003026
:10091800BE004C080319912C922C972C4D08031DEE
:10092800962C972CA02C0030BD000030BC00003065
:10093800BB000030BA007D2F3A08A00040080A1614
:100948008A1160220A128A11831203132108D30024
:100958002008D2005208C200C301C401C5014508DD
:10096800CB004408CA004308C9004208C80053081D
:10097800C200C301C401C5014508D1004408D00024
:100988004308CF004208CE003B08A0003F080A16E3
:100998008A1160220A128A11831203132108D300D4
:1009A8002008D2005208C200C301C401C501420890
:1009B800C807430803110318013E0319E42CC907AB
:1009C800440803110318013E0319EB2CCA07450814
:1009D80003110318013E0319F22CCB075308C20078
:1009E800C301C401C5014208CE0743080311031817
:1009F800013E0319002DCF07440803110318013ED7
:100A08000319072DD007450803110318013E0319E0
:100A18000E2DD1073C08A0003E080A168A11602254
:100A28000A128A11831203132108D3002008D20066
:100A38005208C200C301C401C5014208C8074308DF
:100A480003110318013E03192A2DC907440803118D
:100A58000318013E0319312DCA074508031103186D
:100A6800013E0319382DCB075308C200C301C40146
:100A7800C5014208CE07430803110318013E0319B4
:100A8800462DCF07440803110318013E03194D2DC5
:100A9800D007450803110318013E0319542DD10747
:100AA8000830C2000310C80DC90DCA0DCB0DC20B0A
:100AB800562D3B08A0003E080A168A1160220A1229
:100AC8008A11831203132108D3002008D200520888
:100AD800C2005308C300C401C5014208C80743083F
:100AE80003110318013E03197A2DC907440803119D
:100AF8000318013E0319812DCA074508031103187D
:100B0800013E0319882DCB073A08A0003F080A16B2
:100B18008A1160220A128A11831203132108D30052
:100B28002008D2005208C2005308C300C401C501FE
:100B38004208C807430803110318013E0319A52DED
:100B4800C907440803110318013E0319AC2DCA074D
:100B5800450803110318013E0319B32DCB070830CC
:100B6800C2000310C80DC90DCA0DCB0DC20BB52D9F
:100B78003A08A0003E080A168A1160220A128A1151
:100B8800831203132108D3002008D2005208C200A0
:100B98005308C300C401C5014208C807430803112C
:100BA8000318013E0319D92DC90744080311031876
:100BB800013E0319E02DCA07450803110318013E39
:100BC8000319E72DCB073B08A00040080A168A1135
:100BD80060220A128A11831203132108D300200805
:100BE800D2005208C2005308C300C401C50142081C
:100BF800CE07430803110318013E0319042ECF073B
:100C0800440803110318013E03190B2ED0074508A9
:100C180003110318013E0319122ED1073C08A00046
:100C28003F080A168A1160220A128A1183120313D6
:100C38002108D3002008D2005208C2005308C3007C
:100C4800C401C5014208CE07430803110318013E39
:100C580003192F2ECF07440803110318013E031967
:100C6800362ED007450803110318013E03193D2EFF
:100C7800D1073C08A00040080A168A1160220A120F
:100C88008A11831203132108D3002008D2005208C6
:100C9800C2005308C300C401C50108300310C20DC7
:100CA800C30DC40DC50DFF3E031D522E4208CE07CD
:100CB800430803110318013E0319632ECF074408A4
:100CC80003110318013E03196A2ED00745080311C2
:100CD8000318013E0319712ED1074808C2004908BC
:100CE800C3004A08C4004B08C50018300310C50CDF
:100CF800C40CC30CC20CFF3E031D7A2E4208CE075B
:100D0800430803110318013E03198B2ECF0744082B
:100D180003110318013E0319922ED0074508031149
:100D28000318013E0319992ED1070830C200031099
:100D3800C80DC90DCA0DCB0DC20B9B2E4D084C0713
:100D4800C200C301C30D4208823ED2004308031803
:100D5800013EFF3ED300CD2E0130C2000310CE0D60
:100D6800CF0DD00DD10DC20BB22ECB1FBC2EBD2E78
:100D7800BE2E4E140130C2000310C80DC90DCA0D95
:100D8800CB0DC20BC02EFF30D2070318D30AFF3099
:100D9800D307D01FD02ED12EB02ECC01CB1FD52EED
:100DA800D62EF22EFF304805C200FF304905C30099
:100DB800FF304A05C4007F304B05C5004508440490
:100DC800430442040319E92EEA2EED2ECC01CC0A85
:100DD800F22E4E1CF02EF12EF22EEA2E4C0803199C
:100DE800F62EF72E282F0130CE07003003180130D9
:100DF800CF07003003180130D00700300318013046
:100E0800D107511C082F092F282F4E08C2004F0860
:100E1800C3005008C4005108C5000130C600450D84
:100E2800C50CC40CC30CC20CC60B132F4508D1004B
:100E38004408D0004308CF004208CE000130D20752
:100E48000318D30A0030D3075308803AFF008030D4
:100E58007F02031D312FFF305202031C342F352F20
:100E6800402F7F3083120313D1008030D000003030
:100E7800CF000030CE00712F831203135308803A3D
:100E8800FF0080307F02031D4B2F013052020318F0
:100E98004E2F4F2F5B2F003083120313D1000030E9
:100EA800D0000030CF000030CE00C701712F831270
:100EB80003135208CD00FF30CE05FF30CF057F3039
:100EC800D0050030D1054D1C6A2F6B2F6C2FD01721
:100ED8004D08C2000310420CD1004708C200420866
:100EE800D1045108BD005008BC004F08BB004E0893
:100EF800BA000800031083120313220D230DA90062
:100F08002908031D882F892F922F0030A300003055
:100F1800A2000030A1000030A000F52F2008A40096
:100F28002108A5002208A6002308A7001F300310E7
:100F3800A70CA60CA50CA40CFF3E031D9B2F240890
:100F4800A800A217FF30A005FF30A105FF30A205B9
:100F58000030A3059630A902A91FB32FB42FCE2FB6
:100F68002908803A973E0318BA2FBB2FBC2F892F28
:100F780001300310A30CA20CA10CA00CFF3E031D12
:100F8800BD2F0130A4002408A907031DCC2FCD2FA5
:100F9800BC2FE52F20302902031CD32FD42FE02F9C
:100FA800892F0130A4000310A00DA10DA20DA30DDF
:100FB800A40BD72F0130A9022908031DE42FE52F20
:100FC800D52F28080319E92FEA2FF52FA009A10921
:100FD800A209A309A00A0319A10A0319A20A03195D
:100FE800A30A080083160313111583128C1DFD2F05
:080FF800FE2FF92F8C110800F7
:10100A0083120313A000200893008C1D0D280E28BC
:10101A000A288C11831603131108080068308312FA
:10102A000313A200E330A100A10B1928A20B19286F
:10103A001E280A168A1583270A128A1570300A1280
:10104A008A1505200A128A1571300A128A15052096
:10105A000A128A150A168A1579270A128A15713010
:10106A000A128A1505200A128A150A168A1598275D
:10107A000A128A1583120313A3000A168A158D27EA
:10108A000A128A150A128A11F6270A128A15831277
:10109A00031323080839A3000A168A1583270A129C
:1010AA008A1570300A128A1505200A128A15E1304B
:1010BA000A128A1505200A128A1508300A128A1598
:1010CA0005200A128A1500300A128A1505200A120A
:1010DA008A150A128A11F6270A128A151A308312F9
:1010EA000313A200F730A100A10B7928A20B7928DB
:1010FA007E28080083120313BD002F30B800F029A0
:10110A002530400603198A288B2895283D08840033
:10111A004008831780000130B5003508BD07F02963
:10112A00BE01BF01B9019E2839150130B500350845
:10113A00AE072E0884000A168A110A200A128A1596
:10114A00B500B6013608003A0319AC28B1283508AB
:10115A00303A03199928B1282E0884000A168A11F0
:10116A000A200A128A150A168A15D5270A128A151A
:10117A00031CC028C128072983120313BE01BF011B
:10118A000A3083120313A0000030A1003F08A30015
:10119A003E08A2000A168A1139220A128A158312F7
:1011AA0003132108BF002008BE002E0884000A1677
:1011BA008A110A200A128A15D03EB500FF30031898
:1011CA000030B6003508BE070318BF0A3608BF0745
:1011DA000130B5003508AE072E0884000A168A11B8
:1011EA000A200A128A150A168A15D5270A128A159A
:1011FA00031800290129C5280729C030B500350878
:10120A00B9042329013083120313AE07FF302E07D6
:10121A0084000A168A110A200A128A15C000B5002B
:10122A00B6013608003A03191B29F0293508003A95
:10123A000319002A753A03190229F029380884008B
:10124A0083130008BA00840A0008BB000230B50004
:10125A003508B807C001C00A4008B5003507013E85
:10126A0084000A168A110A200A128A15B6000A167A
:10127A008A110A200A128A15B70037083B02031D91
:10128A00482936083A0203184B294C294D2957296F
:10129A000130B5003508C00705304006031D562940
:1012AA00572931293F08803A803C031D5E293E08B0
:1012BA0040020318612962296E2983120313400828
:1012CA00B500B6013508BE023608031CBF03BF02CB
:1012DA00722983120313BE01BF01391D75297629AC
:1012EA0092293E083F0403197B297C29AD293D0830
:1012FA0084003030831780000130B5003508BD07FF
:10130A00FF30BE070318BF0AFF30BF073E083F047D
:10131A00031D902991297C29AD293E083F04031910
:10132A0097299829AD293D08840020308317800029
:10133A000130B5003508BD07FF30BE070318BF0AE4
:10134A00FF30BF073E083F04031DAC29AD29982989
:10135A004008BC00E7290A30A8000030A9003C0870
:10136A00B5003507013E84000A168A110A200A12BE
:10137A008A15A0000A168A110A200A128A15A100E3
:10138A003B08A3003A08A2000A168A116D240A1221
:10139A008A15831203132108AB002008AA000A1633
:1013AA008A11AD230A128A15831203132808303EC4
:1013BA00C0003D0884004008831780000130B50052
:1013CA003508BD07FF30B5003508BC073C0A031DC8
:1013DA00EF29F029B0290130AE07FF302E0784002B
:1013EA000A168A110A200A128A15C0004008031D2B
:1013FA00FF29002A85283D088400831780010800F8
:10140A000A168A1583270A128A1570300A128A1553
:10141A0005200A128A15AC300A128A1505200A120A
:10142A008A1533300A128A1505200A128A150030E5
:10143A000A128A1505200A128A150A128A11F62733
:10144A000A128A15D03083160313B400C930B300C8
:10145A00B30B2D2AB40B2D2A0A168A1583270A12D2
:10146A008A1570300A128A1505200A128A157130F7
:10147A000A128A1505200A128A150A168A15792768
:10148A000A128A1571300A128A1505200A128A155B
:10149A000A168A1598270A128A150A168A158D2796
:1014AA000A128A150A128A11F6270A128A150A16C8
:1014BA008A1583270A128A1571300A128A1505209D
:1014CA000A128A150A168A1598270A128A15831685
:1014DA000313C1000A168A15A3270A128A150A16C7
:1014EA008A1598270A128A1583160313C2000A1648
:1014FA008A15A3270A128A150A168A1598270A1224
:10150A008A1583160313C3000A168A15A3270A121B
:10151A008A150A168A1598270A128A15831603133A
:10152A00C4000A168A15A3270A128A150A168A15EA
:10153A0098270A128A1583160313C5000A168A15F4
:10154A00A3270A128A150A168A1598270A128A15D3
:10155A0083160313C6000A168A15A3270A128A15C8
:10156A000A168A1598270A128A1583160313C700C2
:10157A000A168A158D270A128A150A128A11F6275F
:10158A000A128A15831603134608B300B401B5017B
:10159A00B6014508B700B8013708B800B7013708DF
:1015AA00B9003808BA00BB01BC0144080F39BD00B4
:1015BA00BE01BF01C00110300310BD0DBE0DBF0D2D
:1015CA00C00DFF3E031DE12A3D08B9073E08031876
:1015DA003E0FF02AF12ABA073F0803183F0FF62AEE
:1015EA00F72ABB0740080318400ABC073908B307A3
:1015FA003A0803183A0F022B032BB4073B080318C7
:10160A003B0F082B092BB5073C0803183C0AB60701
:10161A00360883120313A3008316031335088312B3
:10162A000313A20083160313340883120313A100C1
:10163A0083160313330883120313A00000300A161B
:10164A008A1108260A128A1583120313230883169D
:10165A000313CB0083120313220883160313CA0051
:10166A0083120313210883160313C9008312031379
:10167A00200883160313C800C23083120313D7004D
:10168A004830D6000030D5000030D4004330BD00C9
:10169A004830BC000030BB000030BA004930A3001B
:1016AA008030A2000030A1000030A000831603138E
:1016BA004B0883120313A700831603134A088312E5
:1016CA000313A60083160313490883120313A50004
:1016DA0083160313480883120313A4000A128A15F7
:1016EA00D5230A128A15831203132308C10022087C
:1016FA00C0002108BF002008BE000A128A1139243E
:10170A000A128A15831203133D08DB003C08DA002B
:10171A003B08D9003A08D8000A128A15A8250A12E5
:10172A008A1583120313570883160313CB008312F7
:10173A000313560883160313CA00831203135508AA
:10174A0083160313C9008312031354088316031361
:10175A00C8004B08A3004A08A2004908A10048088B
:10176A00A0001030A4000230A5000A128A1133200A
:10177A000A128A150C3083120313A40001300A16C8
:10178A008A11B3240A128A15103083120313A50092
:10179A000130A6000A168A1127240A128A1508009F
:1017AA008312031327088039B1002708A8002807E5
:1017BA00B800A61FE12BE22BE32B381438080319D3
:1017CA00E72BE82BF82B380A031DEC2BED2BF52B16
:1017DA000030A7000030A6000030A5000030A400A9
:1017EA00A617A701002C0030A7000030A600003081
:1017FA00A5000030A40023088039A8002808B106F3
:10180A002308A8002807B900A21F0C2C0D2C0E2CA7
:10181A00391439080319122C132C232C390A031DE5
:10182A00172C182C202C0030A3000030A200003006
:10183A00A1000030A000A217A3012B2C0030A300A6
:10184A000030A2000030A1000030A00023082204CA
:10185A0021042004031D322C332C4C2C0030A70009
:10186A000030A6000030A5000030A4008030A60495
:10187A007F30A7043108A8002808A7042708A30076
:10188A002608A2002508A1002408A000A72D3808D0
:10189A00031D502C512C5A2C0030A3000030A200FA
:1018AA000030A1000030A000A72D3808A800A90127
:1018BA002908AB0039082802AA00031CAB032A082E
:1018CA007F3EB2002B080318013E003EB3002708F2
:1018DA00B0002608AF002508AE002408AD0000308D
:1018EA00A7000030A6000030A5000030A400003098
:1018FA00B7000030B6000030B5000030B400B901BE
:10190A00D02C390803198A2C8B2CAB2C0130A80057
:10191A000310AD0DAE0DAF0DB00DA80B8D2C01301F
:10192A00A8000310A40DA50DA60DA70DA80B962CB3
:10193A00B71FA02CA12CA22C24140130A80003103C
:10194A00B40DB50DB60DB70DA80BA42C23083002A3
:10195A00031DB92C22082F02031DB92C21082E02BF
:10196A00031DB92C20082D02031CBC2CBD2CCC2C29
:10197A0037172008AD022108031C210FAE022208E6
:10198A00031C220FAF022308031C230FB0020130ED
:10199A00A8002808B9071A303902031CD52CD62CFE
:1019AA00862C30082F042E042D040319DD2CDE2C7E
:1019BA00FD2C3414FD2C0130A8000310A40DA50D34
:1019CA00A60DA70DA80BE22CB71FEC2CED2CEE2CC4
:1019DA0024140130A8000310B40DB50DB60DB70DCF
:1019EA00A80BF02CFF30B2070318B30AFF30B30775
:1019FA00A61F002D012DE02CB901B71F052D062DBC
:101A0A00222DFF303405A800FF303505A900FF302C
:101A1A003605AA007F303705AB002B082A042904B3
:101A2A0028040319192D1A2D1D2DB901B90A222DC1
:101A3A00241C202D212D222D1A2D39080319262D7B
:101A4A00272D582D0130A407003003180130A507AF
:101A5A00003003180130A607003003180130A70729
:101A6A00271C382D392D582D2408A8002508A9002F
:101A7A002608AA002708AB000130AC002B0DAB0CDE
:101A8A00AA0CA90CA80CAC0B432D2B08A7002A08FA
:101A9A00A6002908A5002808A4000130B2070318E7
:101AAA00B30A0030B3073308803AFF0080307F0260
:101ABA00031D612DFF303202031C642D652D732D29
:101ACA00FF3083120313B2000030B3000030A700C6
:101ADA000030A6000030A5000030A40083120313D2
:101AEA003308803AFF0080307F02031D7E2D0130CB
:101AFA0032020318812D822D8F2D83120313B20116
:101B0A00B3010030A7000030A6000030A500003065
:101B1A00A400B101831203133208B800381C962DB1
:101B2A00972D992DA6179D2D7F30A8002808A60568
:101B3A003808A8000310280CA7003108A8002808B4
:101B4A00A704432C08008312031357088039E400C2
:101B5A005708DC005C07E600D61FB42DB52DB62D5C
:101B6A00661466080319BA2DBB2DCB2D660A031D10
:101B7A00BF2DC02DC82D0030D7000030D600003050
:101B8A00D5000030D400D617D701D32D0030D700A6
:101B9A000030D6000030D5000030D4005B08803910
:101BAA00E500650864060319DB2DDC2DDD2D6417BD
:101BBA005B08DC005C07E500DA1FE42DE52DE62D65
:101BCA00651465080319EA2DEB2DFB2D650A031D23
:101BDA00EF2DF02DF82D0030DB000030DA00003058
:101BEA00D9000030D800DA17DB01032E0030DB0001
:101BFA000030DA000030D9000030D80066086502EB
:101C0A000318082E092E2F2E641F0C2E0D2E112EAE
:101C1A008030DC005C08E4066608E7006508E60038
:101C2A006708E5005408E7005808D4006708D80098
:101C3A005508E7005908D5006708D9005608E70093
:101C4A005A08D6006708DA005708E7005B08D70089
:101C5A006708DB00E7016508DC00DD015D08DF00DD
:101C6A0066085C02DE00031CDF035F08803AFF009F
:101C7A0080307F02031D432E1A305E02031C462E5B
:101C8A00472E7E2E83120313570856045504540414
:101C9A00031D502E522E0130532E0030E700003023
:101CAA00D7000030D6000030D5000030D4006508D7
:101CBA00E600862E671C622E632E6A2E6708DC00F9
:101CCA0003105C0C0138E7006C2E0310E70C541C5F
:101CDA006F2E702E712EE7170130DC00570DD70CCE
:101CEA00D60CD50CD40CDC0B732E0130DC005C084E
:101CFA00E6078312031365086602031C852E862EE7
:101D0A005F2E641B892E8A2ED32E6608031D8E2E03
:101D1A008F2E982E0030D7000030D6000030D50024
:101D2A000030D400FF2F5808D407590803110318AC
:101D3A00013E0319A12ED5075A0803110318013EC3
:101D4A000319A82ED6075B0803110318013E0319CD
:101D5A00AF2ED707571CB22EB32E872F671CB62E6D
:101D6A00B72EBE2E6708DC0003105C0C0138E700B2
:101D7A00C02E0310E70C541CC32EC42EC52EE71721
:101D8A000130DC00570DD70CD60CD50CD40CDC0B6B
:101D9A00C72E0130DC005C08E607872F5708803A17
:101DAA00FF005B08803A7F02031DE52E5A0856029F
:101DBA00031DE52E59085502031DE52E5808540245
:101DCA000318E82EE92E412FFF30DC00FF30DD003A
:101DDA00FF30DE00FF30DF005808E0005908E1005C
:101DEA005A08E2005B08E3005408E0025508031CA5
:101DFA00550F002F012FE1025608031C560F062F1C
:101E0A00072FE2025708031C570F0C2F0D2FE3026E
:101E1A006008DC0761080318610F142F152FDD070E
:101E2A0062080318620F1A2F1B2FDE0763080318B4
:101E3A00630ADF075F08D7005E08D6005D08D50091
:101E4A005C08D4008030DC005C08E406E709E70A95
:101E5A006708031D312F322F4F2F0130D40700306E
:101E6A0003180130D507003003180130D6070030B7
:101E7A0003180130D7074F2F5808D4025908031CFA
:101E8A00590FD5025A08031C5A0FD6025B08031CC5
:101E9A005B0FD7025708560455045404031D562FE6
:101EAA00572F832F6708031D5B2F5C2F832F00306A
:101EBA00D7000030D6000030D5000030D400FF2F04
:101ECA000130DC000310D40DD50DD60DD70DDC0B77
:101EDA00672FE71F712F722F732F5414671C762FE9
:101EEA00772F7A2F0314E70D7C2F0310E70D66086E
:101EFA000319802F812F832F0130E602D61F862FE8
:101F0A00872F652FE501E71F8B2F8C2F9A2F6708E4
:101F1A007F390319912F922F952FE501E50A9A2F00
:101F2A00541C982F992F9A2F922F650803199E2FC8
:101F3A009F2FD32F0130D407003003180130D50763
:101F4A00003003180130D607003003180130D707D4
:101F5A00571CB02FB12FD32F5408DC005508DD00D1
:101F6A005608DE005708DF000130E0005F0DDF0C85
:101F7A00DE0CDD0CDC0CE00BBB2F5F08D7005E0823
:101F8A00D6005D08D5005C08D400660A0319CE2F76
:101F9A00CF2FD32F0130DC005C08E607660A03194D
:101FAA00D72FD82FDD2F6608031DDC2FDD2FEB2F4F
:101FBA000030D7000030D6000030D5000030D40001
:101FCA006608031DE92FEA2FEB2FE401661CEE2FAA
:101FDA00EF2FF12FD617F52F7F30DC005C08D605DE
:101FEA006608DC0003105C0CD700E41FFD2FFE2FEF
:101FFA00FF2FD7170800FF1B0A2883137F188317A0
:10200A000008840A0319FF0A080010308A0004082D
:10201A00840A82070034013400340A3400346434F8
:10202A000034E8340334103427342534303432345D
:10203A0075342F3425343034323475342F343234F5
:10204A003034253430343234753400342534303465
:10205A00323475343A3425343034323475343A34BF
:10206A002534303432347534003454343A3400343C
:10207A0083120313A000A1010A302002031C462880
:10208A0047284E282008F63EA0002108103EA1004D
:10209A00412820082107A10021080800F300831223
:1020AA000313081373080A168A11E5200A168A11FF
:1020BA008312031388170B30F2006230F100F10B20
:1020CA006428F20B642800008312031388130800A3
:1020DA0083120313A300081323080A168A11A520E2
:1020EA000A168A118312031388170B3083120313FB
:1020FA00A2006130A100A10B8028A20B80288528AC
:10210A00831203138813080083120313A7000F30E6
:10211A002705A4000A30A0002708A50004300310F0
:10212A00A50CFF3E031D942825080A168A15E927DF
:10213A000A168A11831203132407A6002608080028
:10214A0083120313A000201CAB28AC28AE28061665
:10215A00AF280612A01CB228B328B5288616B628BE
:10216A008612201DB928BA28BC280617BD280613CE
:10217A00A01DC028C128C3288617C42886130800B2
:10218A000A168A1583270A168A1151300A128A15E5
:10219A0005200A168A110A168A1598270A168A111C
:1021AA0083160313E6000A128A11F6270A168A1101
:1021BA00413083120313A100A10BE128E42808008F
:1021CA00F000701CE928EA28EE2883120313061689
:1021DA00F128831203130612F01CF428F528F728B5
:1021EA008616F8288612701DFB28FC28FE2806177A
:1021FA00FF280613F01D0229032905298617062937
:10220A0086130800831203130C1C0C290D29242998
:10221A00F7010130F4007408F70702307706031D4E
:10222A00172918291D290A168A15AE270A168A118E
:10223A00831203130C103C308F00B0308E007608E6
:10224A008A00750E8300FE0E7E0E0900803083120E
:10225A000313EB066F08D7006E08D6006D08D50089
:10226A006C08D4006B08DB006A08DA006908D90038
:10227A006808D8000A128A15A8250A168A11831234
:10228A0003135708EB005608EA005508E9005408FA
:10229A00E800080083120313A2000A168A1583278E
:1022AA000A168A11D0300A128A1505200A168A11CE
:1022BA0004300A128A1505200A168A11831203139A
:1022CA0022080A168A113D200A168A110A128A154C
:1022DA0005200A168A110A128A11F6270A168A1185
:1022EA00080083120313A2000A168A1583270A1606
:1022FA008A11D0300A128A1505200A168A1102306C
:10230A000A128A1505200A168A1183120313220853
:10231A000A168A113D200A168A110A128A15052000
:10232A000A168A110A128A11F6270A168A11080051
:10233A0083120313A2000A168A1583270A168A1122
:10234A00D0300A128A1505200A168A1101300A129B
:10235A008A1505200A168A118312031322080A16FF
:10236A008A113D200A168A110A128A1505200A16B0
:10237A008A110A128A11F6270A168A11080083128C
:10238A000313A2000A168A1583270A168A11D03067
:10239A000A128A1505200A168A1105300A128A15A8
:1023AA0005200A168A118312031322080A168A11B3
:1023BA003D200A168A110A128A1505200A168A1160
:1023CA000A128A11F6270A168A11080083120313C1
:1023DA00A2000A168A1583270A168A11D0300A1211
:1023EA008A1505200A168A1100300A128A15052054
:1023FA000A168A118312031322080A168A113D202B
:10240A000A168A110A128A1505200A168A110A1250
:10241A008A11F6270A168A11080083120313A200EA
:10242A000A168A1583270A168A11D0300A128A15C3
:10243A0005200A168A1106300A128A1505200A167C
:10244A008A118312031322080A168A113D200A16DA
:10245A008A110A128A1505200A168A110A128A1185
:10246A00F6270A168A11080083120313A401A5018C
:10247A00201C402A412A472A2208A4070318A50A31
:10248A002308A50701300310A20DA30DFF3E031D6B
:10249A00482A01300310A10CA00CFF3E031D4F2A4D
:1024AA0020082104031D5A2A5B2A3D2A2508A10077
:1024BA002408A000080083120313A800A401A501A0
:1024CA002008A200A3012208A6002308A700281CAE
:1024DA006F2A702A762A2608A4070318A50A27084D
:1024EA00A50701300310A60DA70DFF3E031D772A8D
:1024FA000310A80C2808031D832A842A6C2A25089D
:10250A00A1002408A0000800831603178801890186
:10251A00831603138601880183120313850186013A
:10252A0087018801831603130F178F160F160F14CE
:10253A008B170B170C14831203130C10901610161A
:10254A00901010143C308F00B0308E0080300A1684
:10255A008A11B2220A168A11080083120313A000F4
:10256A00831603138715071683120313200883168D
:10257A000313940028308312031394008316031361
:10258A0091018030831203132006031DCD2ACE2A1F
:10259A00D32A1330831603139300DC2A2008031D61
:1025AA00D72AD82ADC2A1D30831603139300080081
:1025BA00683083120313A200E330A100A10BE32ABF
:1025CA00A20BE32AE82A0A168A1583270A168A1111
:1025DA0070300A128A1505200A168A11BA300A12B0
:1025EA008A1505200A168A110A128A11F6270A166E
:1025FA008A11413083120313A200ED30A100A10B0E
:10260A00042BA20B042B092B080083120313AA0024
:10261A002A08840004300A168A11E9230A168A1144
:10262A000A168A1189200A168A11831380008312D6
:10263A0003132808840005300A168A11E9230A16AA
:10264A008A110A168A1189200A168A1183138000B0
:10265A00831203132908840006300A168A11E92313
:10266A000A168A110A168A1189200A168A118313F0
:10267A008000080083120313AA002A08840000308D
:10268A000A168A11E9230A168A110A168A1189205A
:10269A000A168A1183138000831203132808840000
:1026AA0001300A168A11E9230A168A110A168A11B2
:1026BA0089200A168A1183138000831203132908BA
:1026CA00840002300A168A11E9230A168A110A16A8
:1026DA008A1189200A168A1183138000080083123E
:1026EA000313A40024080F39A2002408F039A30018
:1026FA0008172308A10004300310A10CFF3E031D94
:10270A00812B21080A168A11A5200A168A1183121A
:10271A0003138817193083120313A100A10B932BFB
:10272A00962B83120313881322080A168A11A520EE
:10273A000A168A1183120313881719308312031396
:10274A00A100A10BA62BA92B83120313881308003F
:10275A0083120313280829040319B42BB52BE42B7D
:10276A00AD01AD0AC32B01300310A80DA90DFF3E20
:10277A00031DB92B0130AC002C08AD07A91FC62BCD
:10278A00C72BB82B29082B02031DCD2B28082A0298
:10279A00031CD02BD12BD72B2808AA022908031CEB
:1027AA00AB03AB0201300310A90CA80CFF3E031DBA
:1027BA00D82B0130AD02031DE32BE42BC72B2B08CA
:1027CA00A9002A08A800080083120313A2000A1607
:1027DA008A1583270A168A11D0300A128A1505200B
:1027EA000A168A118312031322080A128A1505206F
:1027FA000A168A110A168A1579270A168A11D130F9
:10280A000A128A1505200A168A110A168A159827A5
:10281A000A168A1183120313A3000A168A158D2732
:10282A000A168A110A128A11F6270A168A1105301F
:10283A0083120313A100A10B202C232C8312031350
:10284A002308080083120313AA01AB01502C2A089B
:10285A002507A8002608A7000318A70AAA1F362CCE
:10286A00A703831203132708A9002908FF002808D1
:10287A0084000A168A1100200A168A110A168A1179
:10288A0074230A168A11013083120313AA07031844
:10289A00AB0A0030AB072A082507A8002608A700BC
:1028AA000318A70AAA1F5A2CA7038312031327087F
:1028BA00A9002908FF00280884000A168A110020A6
:1028CA000A168A11003A031D6B2C6C2C2C2C08005A
:1028DA0083120313A501A601200821040319762CEB
:1028EA00772CAE2CA701A70A852C01300310A00D66
:1028FA00A10DFF3E031D7B2C0130A4002408A7076D
:10290A00A11F882C892C7A2C01300310A50DA60D45
:10291A00FF3E031D8A2C21082302031D962C200842
:10292A002202031C992C9A2CA12C2008A20221080D
:10293A00031CA303A302251401300310A10CA00C4D
:10294A00FF3E031DA22C0130A702031DAD2CAE2CA5
:10295A00892C2608A1002508A00008008312031369
:10296A00A6002603031DBA2CBB2CDA2C24087F3EB2
:10297A00A9002908A50004300310A50CFF3E031D79
:10298A00C12C2508A70029080F39A80027080A160C
:10299A008A116D200A168A118312031328080A164F
:1029AA008A116D200A168A11FE2C02302606031D92
:1029BA00DF2CE02CFE2C2408BF3EA9002908A50024
:1029CA0004300310A50CFF3E031DE62C2508A700C2
:1029DA0029080F39A80027080A168A116D200A1635
:1029EA008A118312031328080A168A116D200A16FF
:1029FA008A11080000300A168A11A5200A168A11BF
:102A0A00343083120313A500F130A400A40B0B2D5C
:102A1A00A50B0B2D03300A168A116D200A168A118E
:102A2A000D3083120313A500FB30A400A40B1B2D49
:102A3A00A50B1B2D03300A168A116D200A168A115E
:102A4A00843083120313A400A40B292D0000033041
:102A5A000A168A116D200A168A1102300A168A117C
:102A6A006D200A168A1102300A168A116D200A167A
:102A7A008A1108300A168A116D200A168A11003046
:102A8A000A168A116D200A168A110C300A168A1142
:102A9A006D200A168A1100300A168A116D200A164C
:102AAA008A1106300A168A116D200A168A114130D7
:102ABA0083120313A400A40B602D632D08000030B9
:102ACA00831203132005A80000302105A9008030D5
:102ADA002205AA007F302305AB002B082A0429040B
:102AEA002804031D792D7A2D822D0030A300003091
:102AFA00A2000030A1000030A00000302405A80088
:102B0A0000302505A90080302605AA007F30270558
:102B1A00AB002B082A0429042804031D952D962DA1
:102B2A009E2D0030A7000030A6000030A50000301E
:102B3A00A400A31FA12DA22DC62D0030A80000308D
:102B4A00A9000030AA008030AB002008A8022108A2
:102B5A00031C210FB12DB22DA9022208031C220F3A
:102B6A00B72DB82DAA022308031C230FBD2DBE2D95
:102B7A00AB022B08A3002A08A2002908A1002808F2
:102B8A00A000A71FC92DCA2DEE2D0030A8000030C5
:102B9A00A9000030AA008030AB002408A80225084A
:102BAA00031C250FD92DDA2DA9022608031C260F8E
:102BBA00DF2DE02DAA022708031C270FE52DE62D9D
:102BCA00AB022B08A7002A08A6002908A500280896
:102BDA00A4008030A3068030A70627082302031D1D
:102BEA00002E26082202031D002E25082102031D9D
:102BFA00002E240820020318032E042E062E03108A
:102C0A00072E0314080083120313A80028080319C7
:102C1A000F2E102E242EA31F132E142E242E20091D
:102C2A00AA002109AB002209AC002309AD00AA0AB7
:102C3A000319AB0A0319AC0A0319AD0A2C2E23088F
:102C4A00AD002208AC002108AB002008AA00230826
:102C5A00220421042004031D332E342E3D2E00307D
:102C6A00A3000030A2000030A1000030A000C12E55
:102C7A009630A9004D2E0130A4002408A90701307E
:102C8A000310AD0CAC0CAB0CAA0CFF3E031D452E79
:102C9A00FE302D05031D522E532E402E6F2E01306D
:102CAA00A4002408A9070130AA070030031801303C
:102CBA00AB07003003180130AC07003003180130AD
:102CCA00AD0701300310AD0CAC0CAB0CAA0CFF3EE7
:102CDA00031D672EFF302D05031D742E752E542EED
:102CEA00812E0130A9020130A4000310AA0DAB0DF8
:102CFA00AC0DAD0DA40B7A2EAC1B842E852E8B2E1B
:102D0A000230290203188A2E8B2E762E29188E2E2F
:102D1A008F2E972EFF30AA05FF30AB057F30AC050A
:102D2A00FF30AD050310A90C2908A400A501A601CE
:102D3A00A70118300310A40DA50DA60DA70DFF3E7F
:102D4A00031D9F2E2408AA042508AB042608AC04F8
:102D5A002708AD0428080319B32EB42EB92EA31FD1
:102D6A00B72EB82EB92EAD172D08A3002C08A20035
:102D7A002B08A1002A08A00008000A168A11892235
:102D8A000A168A110A168A11FF240A168A110A16C5
:102D9A008A15C8270A168A110A3083120313A40057
:102DAA0001300A168A11B3240A168A112B308312AB
:102DBA000313A5008030A6000A168A1127240A16D2
:102DCA008A110A168A11DD220A168A110A128A152E
:102DDA0013200A168A1100300A168A11EB210A16E4
:102DEA008A1100300A168A119D210A168A110030AA
:102DFA000A168A1176210A168A1114300A168A11BD
:102E0A004F210A168A1102300A168A11C4210A169B
:102E1A008A1117300A168A1112220A168A11EE30FE
:102E2A0083120313A800ED30A900EF300A168A11A5
:102E3A003F230A168A11EB3083120313A800EA30E3
:102E4A00A900EC300A168A110A230A168A110A12F4
:102E5A008A1505220A168A110A168A11C5200A1627
:102E6A008A1183120313A401A40A01300A168A11D3
:102E7A00B3240A168A111C3083120313AE00831678
:102E8A0003136D08CC00CD014C0883120313AF0065
:102E9A00831603134D0883120313B000831603131A
:102EAA006E08CE00CF014E0883120313B1008316B9
:102EBA0003134F0883120313B200831603136F0818
:102ECA00D000D101500883120313B30083160313F1
:102EDA00510883120313B400A4300A128A157F2002
:102EEA000A168A11A43083120313A5000130A60022
:102EFA000A168A1127240A168A1183120313A401B7
:102F0A00A40A02300A168A11B3240A168A110B304F
:102F1A0083120313AE00831603136C08CC00CD0191
:102F2A004C0883120313AF00831603134D08831250
:102F3A000313B000831603136B08CE00CF014E08AB
:102F4A0083120313B100831603134F08831203136A
:102F5A00B200831603136A08D000D1015008831205
:102F6A000313B30083160313510883120313B40027
:102F7A00A4300A128A157F200A168A11A4308312F5
:102F8A000313A5000130A6000A168A1127240A167F
:102F9A008A110C3083120313A40002300A168A1114
:102FAA00B3240A168A11173083120313AE0083164C
:102FBA0003136608CC00CD014C0883120313AF003B
:102FCA00831603134D0883120313B000A4300A12A8
:102FDA008A157F200A168A11A43083120313A500CA
:102FEA000130A6000A168A1127240A168A11142FFC
:062FFA000A128A110C28E6
:103EE20064008001840A0406031900340406722F58
:103EF20083160313911483128C1D802F812F7C2F24
:103F02008C11080083160313111483128C1D8A2F3F
:103F12008B2F862F8C11080083160313911611160E
:103F220083128C1D952F962F912F8C1108008316CA
:103F32000313911583128C1D9F2FA02F9B2F8C1181
:103F420013080800831603139112111683128C1D95
:103F5200AB2FAC2FA72F8C11080001300A168A1143
:103F620053200A168A150C300A168A1153200A1693
:103F72008A15080083120313230822042104200453
:103F82000319C42FC52FC72F8030A30608000030A5
:103F92000A168A116D200A168A1501300A168A112C
:103FA2006D200A168A15080083120313A100A001CE
:103FB2003A3021020318DE2FDF2FE72F30302102A3
:103FC200031CE42FE52FE72FA001A00A200C080014
:103FD20083120313A300A201231CF02FF12FF52F4C
:103FE2002008A1002108A2070310A00D0310A30CB2
:103FF2002308031DFD2FFE2FED2F22080800FF3F8F
:06400200FF3FFF3FFF3FFE
:04400E00D420FF3F7C
:00000001FF
