:060000000A128A110C280F
:10000800FE00030EF1000A08F2000A168A116E2992
:100018000A128A110F28F801F901FA018312031351
:10002800EC018313CB308400F0300A168A11882043
:100038000A128A11831790308400EE300A168A114A
:1000480088200A128A1183010A168A11A62E83169D
:1000580003132508013EAC00003003180130AD0041
:10006800B001B101230883120313A30083160313FD
:10007800220883120313A200831603132108831294
:100088000313A10083160313200883120313A0008F
:100098000030A7000030A6000030A5000030A40002
:1000A8000A128A114E270A128A1103185C285D2841
:1000B800832883160313240884002D3083178000B7
:1000C800013083120313EB006B0883160313A40794
:1000D8002308F6002208F5002108F4002008F300A0
:1000E8000A168A11CF200A128A117608831603137A
:1000F800A3007508A2007408A1007308A0000030CE
:1001080083120313A3000030A2000030A1000030C6
:10011800A00083160313230883120313A700831672
:100128000313220883120313A6008316031321085E
:1001380083120313A50083160313200883120313E5
:10014800A4000A128A114E270A128A110318AD2830
:10015800AE286329F428413083120313B8002030F5
:10016800B7000030B6000030B5008316031323082B
:1001780083120313BC00831603132208831203138C
:10018800BB0083160313210883120313BA008316D6
:100198000313200883120313B9000A128A110924D1
:1001A8000A128A1183120313380883160313A30053
:1001B80083120313370883160313A2008312031351
:1001C800360883160313A100831203133508831618
:1001D8000313A000FF30B0070318B10AFF30B107BE
:1001E80083160313230883120313A3008316031330
:1001F800220883120313A200831603132108831213
:100208000313A10083160313200883120313A0000D
:100218003F30A7008030A6000030A5000030A400C1
:100228000A128A114E270A128A11031C1C291D2939
:10023800AF286329413083120313A3002030A200A2
:100248000030A1000030A000831603132308831296
:100258000313A70083160313220883120313A600AF
:1002680083160313210883120313A50083160313AF
:10027800200883120313A4000A128A15D5230A1230
:100288008A1183120313230883160313A30083120E
:100298000313220883160313A200831203132108F1
:1002A80083160313A1008312031320088316031374
:1002B800A0000130B0070318B10A0030B107831657
:1002C8000313230883120313A300831603132208BE
:1002D80083120313A2008316031321088312031346
:1002E800A10083160313200883120313A0004130D2
:1002F800A7002030A6000030A5000030A4000A1294
:100308008A114E270A128A1103188B298C291E2953
:100318008316031330082C07AC0031080318310A80
:100328002D07AD000130AE000030AF002E08F300FD
:100338002F08F4000030F41BFF30F500F600013000
:100348000A168A11EC250A128A11760883160313F5
:10035800AB007508AA007408A9007308A800F92959
:10036800413083120313A3002030A2000030A10003
:100378000030A000831603132B0883120313A70071
:10038800831603132A0883120313A6008316031384
:10039800290883120313A500831603132808831260
:1003A8000313A4000A128A15D5230A128A1183128C
:1003B8000313230883160313AB00831203132208C5
:1003C80083160313AA008312031321088316031349
:1003D800A90083120313200883160313A800013011
:1003E800AE070318AF0A0030AF072F08803A831210
:1003F8000313EB00831603132D08803A83120313AB
:100408006B02031D0B2A831603132C082E02031CF0
:100418000E2A0F2AB429831603132B0883120313F9
:10042800A700831603132A0883120313A600831652
:100438000313290883120313A5008316031328083E
:1004480083120313A4004030A3000030A200003040
:10045800A1000030A0000A128A15D5230A128A11B9
:10046800831203132308D2002208D1002108D000E8
:100478002008CF0083160313230883120313D60022
:1004880083160313220883120313D500831603135C
:10049800210883120313D400831603132008831240
:1004A8000313D3000A128A15A8250A128A11831287
:1004B8000313520883160313A3008312031351086E
:1004C80083160313A2008312031350088316031321
:1004D800A100831203134F0883160313A0002308F7
:1004E80083120313A3008316031322088312031332
:1004F800A20083160313210883120313A100831695
:100508000313200883120313A0004130A7002030F2
:10051800A6000030A5000030A4000A128A114E2758
:100528000A128A11031C992A9A2AAA2A3F3083168A
:100538000313A3008030A2000030A1000030A00007
:100548000130B0070318B10A0030B107831603134E
:10055800B11FAF2AB02A052B240884003030831736
:100568008000013083120313EB006B08831603131A
:10057800A407240884002E3080000130831203135E
:10058800EB006B0883160313A407AD1FCC2ACD2AF2
:10059800D52A2C083002B0002D08031C2D0A310280
:1005A800B100FF30AE00FF30AF00EF2A831603130F
:1005B800240884003030831780000130831203132D
:1005C800EB006B0883160313A407FF30AE0703186C
:1005D800AF0AFF30AF073108803A83120313EB00EC
:1005E800831603132F08803A831203136B02031D2B
:1005F800012B831603132E083002031C042B052B32
:10060800DA2A83160313AE01AF01EC2B831603130A
:100618002308F6002208F5002108F4002008F3005A
:100628000A128A1525200A128A11740883160313E0
:10063800A7007308A600240884002608303E831704
:100648008000013083120313EB006B088316031339
:10065800A40731082F06031D332B30082E06031D6F
:10066800362B372B432B240884002E308000013092
:1006780083120313EB006B0883160313A4072608E1
:10068800F3002708F4000030F41BFF30F500F600F3
:1006980001300A168A11EC250A128A117608831687
:1006A8000313AB007508AA007408A9007308A80012
:1006B8002B0883120313E600831603132A088312F8
:1006C8000313E50083160313290883120313E400B8
:1006D80083160313280883120313E30083160313F6
:1006E800230883120313EA008316031322088312D4
:1006F8000313E90083160313210883120313E80088
:1007080083160313200883120313E7000A128A15BD
:1007180001200A128A118312031366088316031331
:10072800A30083120313650883160313A200831220
:100738000313640883160313A100831203136308C9
:1007480083160313A000413083120313B80020302E
:10075800B7000030B6000030B50083160313230835
:1007680083120313BC008316031322088312031396
:10077800BB0083160313210883120313BA008316E0
:100788000313200883120313B9000A128A110924DB
:100798000A128A1183120313380883160313A3005D
:1007A80083120313370883160313A200831203135B
:1007B800360883160313A100831203133508831622
:1007C8000313A0000130AE070318AF0A0030AF07CB
:1007D8002F08803A83120313EB00831603132D08A6
:1007E800803A831203136B02031DFE2B8316031337
:1007F8002C082E02031C012C022C0A2B831603132F
:100808002408840083178001080083120313380822
:100818008039C2003808BD003D07C800B71F152C35
:10082800162C172C4814480803191B2C1C2C2B2C8D
:10083800480A031D202C212C292C0030B800003038
:10084800B7000030B6000030B500B717332C0030C1
:10085800B8000030B7000030B6000030B5003C08E2
:100868008039BD003D08C2063C08BD003D07C700F1
:10087800BB1F3F2C402C412C471447080319452C1B
:10088800462C552C470A031D4A2C4B2C532C003060
:10089800BC000030BB000030BA000030B900BB1704
:1008A8005D2C0030BC000030BB000030BA000030C6
:1008B800B90047080319612C622C672C4808031DEE
:1008C800662C672C702C0030B8000030B700003060
:1008D800B6000030B5004D2F3508F3003B080A1666
:1008E8008A11C5220A128A11740883120313CE00D2
:1008F8007308CD004D08BD00BE01BF01C00140080E
:10090800C6003F08C5003E08C4003D08C3004E08A5
:10091800BD00BE01BF01C0014008CC003F08CB00AC
:100928003E08CA003D08C9003608F3003A080A160E
:100938008A11C5220A128A11740883120313CE0081
:100948007308CD004D08BD00BE01BF01C0013D08C0
:10095800C3073E0803110318013E0319B42CC4074A
:100968003F0803110318013E0319BB2CC5074008B3
:1009780003110318013E0319C22CC6074E08BD0017
:10098800BE01BF01C0013D08C9073E080311031895
:10099800013E0319D02CCA073F0803110318013E72
:1009A8000319D72CCB07400803110318013E03197C
:1009B800DE2CCC073708F30039080A168A11C5223D
:1009C8000A128A11740883120313CE007308CD002B
:1009D8004D08BD00BE01BF01C0013D08C3073E0868
:1009E80003110318013E0319FA2CC4073F08031129
:1009F8000318013E0319012DC50740080311031808
:100A0800013E0319082DC6074E08BD00BE01BF01EF
:100A1800C0013D08C9073E0803110318013E031928
:100A2800162DCA073F0803110318013E03191D2D8F
:100A3800CB07400803110318013E0319242DCC07E6
:100A48000830BD000310C30DC40DC50DC60DBD0B88
:100A5800262D3608F30039080A168A11C5220A120B
:100A68008A11740883120313CE007308CD004D0851
:100A7800BD004E08BE00BF01C0013D08C3073E08C7
:100A880003110318013E03194A2DC4073F08031137
:100A98000318013E0319512DC50740080311031817
:100AA800013E0319582DC6073508F3003A080A16FF
:100AB8008A11C5220A128A11740883120313CE0000
:100AC8007308CD004D08BD004E08BE00BF01C0012F
:100AD8003D08C3073E0803110318013E0319752D8D
:100AE800C4073F0803110318013E03197C2DC507ED
:100AF800400803110318013E0319832DC607083067
:100B0800BD000310C30DC40DC50DC60DBD0B852D4D
:100B18003508F30039080A168A11C5220A128A1103
:100B2800740883120313CE007308CD004D08BD006E
:100B38004E08BE00BF01C0013D08C3073E080311AF
:100B48000318013E0319A92DC4073F080311031810
:100B5800013E0319B02DC507400803110318013ED3
:100B68000319B72DC6073608F3003B080A168A1181
:100B7800C5220A128A11740883120313CE0073085F
:100B8800CD004D08BD004E08BE00BF01C0013D08A4
:100B9800C9073E0803110318013E0319D42DCA07DB
:100BA8003F0803110318013E0319DB2DCB0740084A
:100BB80003110318013E0319E22DCC073708F3008F
:100BC8003A080A168A11C5220A128A117408831271
:100BD8000313CE007308CD004D08BD004E08BE00BB
:100BE800BF01C0013D08C9073E0803110318013EB3
:100BF8000319FF2DCA073F0803110318013E031903
:100C0800062ECB07400803110318013E03190D2EC9
:100C1800CC073708F3003B080A168A11C5220A12C6
:100C28008A11740883120313CE007308CD004D088F
:100C3800BD004E08BE00BF01C00108300310BD0D45
:100C4800BE0DBF0DC00DFF3E031D222E3D08C90776
:100C58003E0803110318013E0319332ECA073F0843
:100C680003110318013E03193A2ECB07400803115C
:100C78000318013E0319412ECC074308BD00440860
:100C8800BE004508BF004608C00018300310C00C5D
:100C9800BF0CBE0CBD0CFF3E031D4A2E3D08C90704
:100CA8003E0803110318013E03195B2ECA073F08CB
:100CB80003110318013E0319622ECB0740080311E4
:100CC8000318013E0319692ECC070830BD00031034
:100CD800C30DC40DC50DC60DBD0B6B2E48084707C7
:100CE800BD00BE01BE0D3D08823ECD003E08031882
:100CF800013EFF3ECE009D2E0130BD000310C90D00
:100D0800CA0DCB0DCC0DBD0B822EC61F8C2E8D2E81
:100D18008E2E49140130BD000310C30DC40DC50D3E
:100D2800C60DBD0B902EFF30CD070318CE0AFF303D
:100D3800CE07CB1FA02EA12E802EC701C61FA52E21
:100D4800A62EC22EFF304305BD00FF304405BE006D
:100D5800FF304505BF007F304605C00040083F040E
:100D68003E043D040319B92EBA2EBD2EC701C70A89
:100D7800C22E491CC02EC12EC22EBA2E47080319F6
:100D8800C62EC72EF82E0130C907003003180130CF
:100D9800CA07003003180130CB07003003180130B0
:100DA800CC074C1CD82ED92EF82E4908BD004A086D
:100DB800BE004B08BF004C08C0000130C100400D08
:100DC800C00CBF0CBE0CBD0CC10BE32E4008CC0000
:100DD8003F08CB003E08CA003D08C9000130CD07D6
:100DE8000318CE0A0030CE074E08803AFF00803044
:100DF8007F02031D012FFF304D02031C042F052F16
:100E0800102F7F3083120313CC008030CB000030CA
:100E1800CA000030C900412F831203134E08803ADC
:100E2800FF0080307F02031D1B2F01304D02031885
:100E38001E2F1F2F2B2F003083120313CC000030DE
:100E4800CB000030CA000030C900C201412F831214
:100E580003134D08C800FF30C905FF30CA057F30AD
:100E6800CB050030CC05481C3A2F3B2F3C2FCB1725
:100E78004808BD0003103D0CCC004208BD003D08E9
:100E8800CC044C08B8004B08B7004A08B60049081B
:100E9800B50008000030831203132005F30000306A
:100EA8002105F40080302205F5007F302305F60087
:100EB8007608750474047304031D632F642F6C2F64
:100EC8000030A3000030A2000030A1000030A000D4
:100ED80000302405F30000302505F4008030260595
:100EE800F5007F302705F60076087504740473044E
:100EF800031D7F2F802F882F0030A7000030A60009
:100F08000030A5000030A400A31F8B2F8C2FB02F1A
:100F18000030F3000030F4000030F5008030F600B7
:100F28002008F3022108031C210F9B2F9C2FF40299
:100F38002208031C220FA12FA22FF5022308031C4D
:100F4800230FA72FA82FF6027608A3007508A20082
:100F58007408A1007308A000A71FB32FB42FD82FBF
:100F68000030F3000030F4000030F5008030F60067
:100F78002408F3022508031C250FC32FC42FF402ED
:100F88002608031C260FC92FCA2FF5022708031CA1
:100F9800270FCF2FD02FF6027608A7007508A600D6
:100FA8007408A5007308A4008030A3068030A70643
:100FB80027082302031DEA2F26082202031DEA2F11
:100FC80025082102031DEA2F240820020318ED2F0B
:100FD800EE2FF02F0310F12F03140800F30073080D
:100FE8008312031393008C1DFA2FFB2FF72F8C11FC
:080FF800831603131108080021
:10100200803083120313E6066A08D2006908D10011
:101012006808D0006708CF006608D6006508D500CA
:101022006408D4006308D3000A128A15A8250A129C
:101032008A15831203135208E6005108E50050088E
:10104200E4004F08E30008000310750D760D8312CB
:101052000313A5002508031D2F2830283928003046
:10106200F6000030F5000030F4000030F3009C2858
:101072007308A0007408A1007508A2007608A300F6
:101082001F300310A30CA20CA10CA00CFF3E031DE9
:1010920042282008A400F517FF30F305FF30F405BD
:1010A200FF30F5050030F6059630A502A51F5A2837
:1010B2005B2875282508803A973E03186128622824
:1010C2006328302801300310F60CF50CF40CF30CF5
:1010D200FF3E031D64280130A0002008A507031D60
:1010E2007328742863288C2820302502031C7A2850
:1010F2007B28872830280130A0000310F30DF40D5F
:10110200F50DF60DA00B7E280130A5022508031D62
:101112008B288C287C2824080319902891289C2845
:10112200F309F409F509F609F30A0319F40A031994
:10113200F50A0319F60A080083120313BA002A30CB
:10114200B3000E2A25303B060319A828A928B32884
:101152003A0884003B08831780000130B000300851
:10116200BA070E2AB801B901B401BC2834150130FE
:10117200B0003008A907290884000A168A110A203B
:101182000A128A15B000B1013108003A0319CA28BF
:10119200CF283008303A0319B728CF28290884000D
:1011A2000A168A110A200A128A150A168A11E720DB
:1011B2000A128A15031CDE28DF282529831203134D
:1011C200B801B9010A30F3000030F40083120313AE
:1011D2003908F6003808F5000A168A1117230A1290
:1011E2008A15740883120313B9007308B80029081A
:1011F20084000A168A110A200A128A15D03EB0000B
:10120200FF3003180030B1003008B8070318B90ADC
:101212003108B9070130B0003008A9072908840055
:101222000A168A110A200A128A150A168A11E7205A
:101232000A128A1503181E291F29E3282529C030FE
:10124200B0003008B4044129013083120313A90706
:10125200FF30290784000A168A110A200A128A1509
:10126200BB00B000B1013108003A031939290E2A36
:101272003008003A03191E2A753A031920290E2A4A
:101282003308840083130008B500840A0008B600FE
:101292000230B0003008B307BB01BB0A3B08B00004
:1012A2003007013E84000A168A110A200A128A15A2
:1012B200B1000A168A110A200A128A15B2003208EF
:1012C2003602031D662931083502031869296A2985
:1012D2006B2975290130B0003008BB0705303B0689
:1012E200031D742975294F293908803A803C031D52
:1012F2007C2938083B0203187F2980298C29831214
:1013020003133B08B000B1013008B8023108031CD6
:10131200B903B902902983120313B801B901341D2C
:1013220093299429B02938083904031999299A294B
:10133200CB293A0884003030831780000130B00096
:101342003008BA07FF30B8070318B90AFF30B907E7
:1013520038083904031DAE29AF299A29CB29380848
:1013620039040319B529B629CB293A08840020305B
:10137200831780000130B0003008BA07FF30B80789
:101382000318B90AFF30B90738083904031DCA29FE
:10139200CB29B6293B08B700052A0A30A300003042
:1013A200A4003708B0003007013E84000A168A11F3
:1013B2000A200A128A15F3000A168A110A200A1252
:1013C2008A15F4003608F6003508F5000A168A1167
:1013D20091240A128A15740883120313A600730853
:1013E200A5000A168A110F240A128A158312031302
:1013F2002308303EBB003A0884003B088317800074
:101402000130B0003008BA07FF30B0003008B7072B
:10141200370A031D0D2A0E2ACE290130A907FF30F3
:10142200290784000A168A110A200A128A15BB00AB
:101432003B08031D1D2A1E2AA3283A08840083178D
:10144200800108000A168A119A200A128A15703041
:101452000A128A11F2270A128A15AC300A128A116C
:10146200F2270A128A1533300A128A11F2270A1257
:101472008A1500300A128A11F2270A128A150A16F0
:101482008A11A4200A128A15D03083160313B300DE
:10149200C930B200B20B4B2AB30B4B2A0A168A117F
:1014A2009A200A128A1570300A128A11F2270A1239
:1014B2008A1571300A128A11F2270A128A150A163F
:1014C2008A1190200A128A1571300A128A11F227A3
:1014D2000A128A150A168A11B9200A128A150A16E0
:1014E2008A11AE200A128A150A168A11A4200A123B
:1014F2008A150A168A119A200A128A1571300A125E
:101502008A11F2270A128A150A168A11B9200A12BA
:101512008A1583160313C0000A168A11C4200A1200
:101522008A150A168A11B9200A128A15831603131C
:10153200C1000A168A11C4200A128A150A168A11D3
:10154200B9200A128A1583160313C2000A168A11D9
:10155200C4200A128A150A168A11B9200A128A159B
:1015620083160313C3000A168A11C4200A128A15AD
:101572000A168A11B9200A128A1583160313C400A7
:101582000A168A11C4200A128A150A168A11B9206B
:101592000A128A1583160313C5000A168A11C4207B
:1015A2000A128A150A168A11B9200A128A15831696
:1015B2000313C6000A168A11AE200A128A150A16E9
:1015C2008A11A4200A128A15831603134508B20051
:1015D200B301B401B5014408B600B7013608B7003B
:1015E200B6013608B8003708B900BA01BB01430892
:1015F2000F39BC00BD01BE01BF0110300310BC0D8C
:10160200BD0DBE0DBF0DFF3E031DFF2A3C08B807EE
:101612003D0803183D0F0E2B0F2BB9073E08031888
:101622003E0F142B152BBA073F0803183F0ABB07BE
:101632003808B20739080318390F202B212BB307BA
:101642003A0803183A0F262B272BB4073B08031836
:101652003B0AB5073508F6003408F5003308F400F4
:101662003208F30000300A168A11EC250A128A1594
:10167200760883160313CA007508C9007408C800E7
:101682007308C700C23083120313D2004830D1005E
:101692000030D0000030CF004330B8004830B700EF
:1016A2000030B6000030B5004930A3008030A200FF
:1016B2000030A1000030A000831603134A088312F1
:1016C2000313A70083160313490883120313A6000A
:1016D20083160313480883120313A500831603130A
:1016E200470883120313A4000A128A15D5230A128B
:1016F2008A15831203132308BC002208BB002108A9
:10170200BA002008B9000A128A1109240A128A159D
:10171200831203133808D6003708D5003608D400E0
:101722003508D3000A128A15A8250A128A158312CF
:101732000313520883160313CA00831203135108BA
:1017420083160313C900831203135008831603136D
:10175200C800831203134F0883160313C7004A08F5
:10176200A3004908A2004808A1004708A000A03031
:10177200A4000230A5000A128A112B200A128A152F
:101782000C30F70001300A168A11D7240A128A1582
:10179200A03083120313A0000130A1000A168A119F
:1017A2004B240A128A150800831203132708803972
:1017B200AC002708F3007307B300A61FE12BE22B4E
:1017C200E32B331433080319E72BE82BF82B330AE6
:1017D200031DEC2BED2BF52B0030A7000030A600EB
:1017E2000030A5000030A400A617A701002C00308D
:1017F200A7000030A6000030A5000030A400230896
:101802008039F3007308AC062308F3007307B400B1
:10181200A21F0C2C0D2C0E2C341434080319122C7C
:10182200132C232C340A031D172C182C202C0030C7
:10183200A3000030A2000030A1000030A000A217D7
:10184200A3012B2C0030A3000030A2000030A10025
:101852000030A0002308220421042004031D322C9E
:10186200332C4C2C0030A7000030A6000030A5001D
:101872000030A4008030A6047F30A7042C08F300B7
:101882007308A7042708A3002608A2002508A100C0
:101892002408A000A72D3308031D502C512C5A2CCC
:1018A2000030A3000030A2000030A1000030A000F0
:1018B200A72D3308F300F4017408F600340873020C
:1018C200F500031CF60375087F3EAD007608031889
:1018D200013E003EAE002708AB002608AA002508FC
:1018E200A9002408A8000030A7000030A60000309C
:1018F200A5000030A4000030B2000030B10000307A
:10190200B0000030AF00B401D02C340803198A2C87
:101912008B2CAB2C0130F3000310A80DA90DAA0DDE
:10192200AB0DF30B8D2C0130F3000310A40DA50DAC
:10193200A60DA70DF30B962CB21FA02CA12CA22C46
:1019420024140130F3000310AF0DB00DB10DB20D30
:10195200F30BA42C23082B02031DB92C22082A0204
:10196200031DB92C21082902031DB92C20082802C5
:10197200031CBC2CBD2CCC2C32172008A802210839
:10198200031C210FA9022208031C220FAA0223080A
:10199200031C230FAB020130F3007308B4071A30A3
:1019A2003402031CD52CD62C862C2B082A0429049D
:1019B20028040319DD2CDE2CFD2C2F14FD2C013004
:1019C200F3000310A40DA50DA60DA70DF30BE22C39
:1019D200B21FEC2CED2CEE2C24140130F30003107A
:1019E200AF0DB00DB10DB20DF30BF02CFF30AD0702
:1019F2000318AE0AFF30AE07A61F002D012DE02C02
:101A0200B401B21F052D062D222DFF302F05F30044
:101A1200FF303005F400FF303105F5007F3032052C
:101A2200F60076087504740473040319192D1A2D2F
:101A32001D2DB401B40A222D241C202D212D222D6E
:101A42001A2D34080319262D272D582D0130A407ED
:101A5200003003180130A507003003180130A60733
:101A6200003003180130A707271C382D392D582DB7
:101A72002408F3002508F4002608F5002708F600DC
:101A82000130F700760DF60CF50CF40CF30CF70BA5
:101A9200432D7608A7007508A6007408A5007308F0
:101AA200A4000130AD070318AE0A0030AE072E08BD
:101AB200803AFF0080307F02031D612DFF302D022E
:101AC200031C642D652D732DFF3083120313AD00AB
:101AD2000030AE000030A7000030A6000030A500A4
:101AE2000030A400831203132E08803AFF008030D6
:101AF2007F02031D7E2D01302D020318812D822DC0
:101B02008F2D83120313AD01AE010030A700003008
:101B1200A6000030A5000030A400AC01831203131C
:101B22002D08B300331C962D972D992DA6179D2DA8
:101B32007F30F3007308A6053308F3000310730C1B
:101B4200A7002C08F3007308A704432C0800831293
:101B5200031352088039DF005208D7005707E1000B
:101B6200D11FB42DB52DB62D611461080319BA2DFC
:101B7200BB2DCB2D610A031DBF2DC02DC82D0030FA
:101B8200D2000030D1000030D0000030CF00D11799
:101B9200D201D32D0030D2000030D1000030D0006D
:101BA2000030CF0056088039E00060085F06031954
:101BB200DB2DDC2DDD2D5F175608D7005707E0001F
:101BC200D51FE42DE52DE62D601460080319EA2DDA
:101BD200EB2DFB2D600A031DEF2DF02DF82D0030AB
:101BE200D6000030D5000030D4000030D300D51725
:101BF200D601032E0030D6000030D5000030D400CC
:101C02000030D300610860020318082E092E2F2E1F
:101C12005F1F0C2E0D2E112E8030D7005708DF06C5
:101C22006108E2006008E1006208E0004F08E2009B
:101C32005308CF006208D3005008E2005408D000D5
:101C42006208D4005108E2005508D1006208D500AC
:101C52005208E2005608D2006208D600E20160088B
:101C6200D700D8015808DA0061085702D900031CCE
:101C7200DA035A08803AFF0080307F02031D432EA8
:101C82001A305902031C462E472E7E2E831203134E
:101C92005208510450044F04031D502E522E01309D
:101CA200532E0030E2000030D2000030D10000306C
:101CB200D0000030CF006008E100862E621C622E48
:101CC200632E6A2E6208D7000310570C0138E20017
:101CD2006C2E0310E20C4F1C6F2E702E712EE21729
:101CE2000130D700520DD20CD10CD00CCF0CD70B37
:101CF200732E0130D7005708E107831203136008DF
:101D02006102031C852E862E5F2E5F1B892E8A2E72
:101D1200D32E6108031D8E2E8F2E982E0030D200F6
:101D22000030D1000030D0000030CF00FF2F530828
:101D3200CF07540803110318013E0319A12ED0073F
:101D4200550803110318013E0319A82ED10756089E
:101D520003110318013E0319AF2ED207521CB22EF3
:101D6200B32E872F621CB62EB72EBE2E6208D70066
:101D72000310570C0138E200C02E0310E20C4F1C76
:101D8200C32EC42EC52EE2170130D700520DD20C3D
:101D9200D10CD00CCF0CD70BC72E0130D70057086F
:101DA200E107872F5208803AFF005608803A7F02E7
:101DB200031DE52E55085102031DE52E540850025D
:101DC200031DE52E53084F020318E82EE92E412F7A
:101DD200FF30D700FF30D800FF30D900FF30DA00E3
:101DE2005308DB005408DC005508DD005608DE000D
:101DF2004F08DB025008031C500F002F012FDC029A
:101E02005108031C510F062F072FDD025208031C35
:101E1200520F0C2F0D2FDE025B08D7075C08031848
:101E22005C0F142F152FD8075D0803185D0F1A2FAA
:101E32001B2FD9075E0803185E0ADA075A08D20078
:101E42005908D1005808D0005708CF008030D70079
:101E52005708DF06E209E20A6208031D312F322F1A
:101E62004F2F0130CF07003003180130D007003068
:101E720003180130D107003003180130D2074F2F69
:101E82005308CF025408031C540FD0025508031CF8
:101E9200550FD1025608031C560FD20252085104A4
:101EA20050044F04031D562F572F832F6208031D22
:101EB2005B2F5C2F832F0030D2000030D100003026
:101EC200D0000030CF00FF2F0130D7000310CF0D1C
:101ED200D00DD10DD20DD70B672FE21F712F722FAC
:101EE200732F4F14621C762F772F7A2F0314E20D73
:101EF2007C2F0310E20D61080319802F812F832F9D
:101F02000130E102D11F862F872F652FE001E21FEA
:101F12008B2F8C2F9A2F62087F390319912F922FC2
:101F2200952FE001E00A9A2F4F1C982F992F9A2F94
:101F3200922F600803199E2F9F2FD32F0130CF07B6
:101F4200003003180130D007003003180130D107E8
:101F5200003003180130D207521CB02FB12FD32FFB
:101F62004F08D7005008D8005108D9005208DA00AB
:101F72000130DB005A0DDA0CD90CD80CD70CDB0B74
:101F8200BB2F5A08D2005908D1005808D000570870
:101F9200CF00610A0319CE2FCF2FD32F0130D700E4
:101FA2005708E107610A0319D72FD82FDD2F6108DF
:101FB200031DDC2FDD2FEB2F0030D2000030D100CB
:101FC2000030D0000030CF006108031DE92FEA2F56
:101FD200EB2FDF01611CEE2FEF2FF12FD117F52F21
:101FE2007F30D7005708D1056108D7000310570C7E
:101FF200D200DF1FFD2FFE2FFF2FD2170800FF1B7D
:102002000A2883137F1883170008840A0319FF0A1A
:10201200080010308A000408840A82070034013460
:1020220000340A34003464340034E83403341034A5
:10203200273425343034323475343A34253430344C
:10204200323475343A342534303432347534003411
:0620520054343A3400345E
:1021100064008001840A0406031900340406892837
:1021200083160313911483128C1D972898289328E3
:102130008C11080083160313111483128C1DA1281F
:10214000A2289D288C1108008316031311158312F1
:102150008C1DAB28AC28A7288C110800831603130C
:102160009116111683128C1DB628B728B2288C112F
:10217000080083160313911583128C1DC028C128F3
:10218000BC288C1113080800831603139112111632
:1021900083128C1DCC28CD28C8288C110800760805
:1021A0007504740473040319D628D728D9288030FD
:1021B000F606080000300A168A1138210A168A111C
:1021C00001300A168A1138210A168A110800F40013
:1021D000F3013A3074020318EE28EF28F728303064
:1021E0007402031CF428F528F728F301F30A730C92
:1021F0000800F300F4010A307302031C00290129CE
:1022000008297308F63EF3007408103EF400FB281A
:1022100073087407F40074080800F600F501761CD2
:102220001229132917297308F4007408F5070310FD
:10223000F30D0310F60C7608031D1F2920290F2922
:10224000750808000A168A119A200A168A11503059
:102250000A128A11F2270A168A110A168A11A42074
:102260000A168A114230F400F40B342900000800E9
:10227000F60083120313081376080A168A11AA219E
:102280000A168A118312031388170B30F500623087
:10229000F400F40B4929F50B4929000083120313BC
:1022A0008813080083120313A3000F302305A00036
:1022B0000A30F3002308A10004300310A10CFF3EF4
:1022C000031D5D2921080A168A110D210A168A119B
:1022D000831203132007A200220808000B1D712996
:1022E000722984290130F000700883160313E30774
:1022F00032306306031D7D297E297F29E301643086
:102300008312031381000B1172088A00710E83007F
:10231000FE0E7E0E0900F3008316031387150716C1
:102320007308940028308312031394008316031358
:10233000910180307306031D9E299F29A229133025
:102340009300A9297308031DA629A729A9291D30CF
:1023500093000800F300731CAE29AF29B329831240
:1023600003130616B629831203130612F31CB929A8
:10237000BA29BC298616BD298612731DC029C12918
:10238000C3290617C4290613F31DC729C829CA295A
:102390008617CB2986130800F5000A168A119A20A1
:1023A0000A168A11D0300A128A11F2270A168A11E7
:1023B00004300A128A11F2270A168A1175080A16C1
:1023C0008A11F9200A168A110A128A11F2270A16AE
:1023D0008A110A168A11A4200A168A110800F5002B
:1023E0000A168A119A200A168A11D0300A128A1106
:1023F000F2270A168A1102300A128A11F2270A16E7
:102400008A1175080A168A11F9200A168A110A1209
:102410008A11F2270A168A110A168A11A4200A16AE
:102420008A110800F5000A168A119A200A168A11E4
:10243000D0300A128A11F2270A168A1101300A12C4
:102440008A11F2270A168A1175080A168A11F920CC
:102450000A168A110A128A11F2270A168A110A1616
:102460008A11A4200A168A110800F5000A168A119A
:102470009A200A168A11D0300A128A11F2270A16F7
:102480008A1105300A128A11F2270A168A11750874
:102490000A168A11F9200A168A110A128A11F227DD
:1024A0000A168A110A168A11A4200A168A1108002F
:1024B000F5000A168A119A200A168A11D0300A12DB
:1024C0008A11F2270A168A1100300A128A11F2279D
:1024D0000A168A1175080A168A11F9200A168A1135
:1024E0000A128A11F2270A168A110A168A11A420E2
:1024F0000A168A110800F5000A168A119A200A168F
:102500008A11D0300A128A11F2270A168A1106306F
:102510000A128A11F2270A168A1175080A168A11F8
:10252000F9200A168A110A128A11F2270A168A114C
:102530000A168A11A4200A168A11080083160317A6
:10254000880189018316031386018801831203130E
:102550008501860187018801831603130F178F16E3
:102560000F160F14811281110115811401148B179C
:102570008B160B11643083120313810080300A160E
:102580008A118B210A168A11080083120313A400F2
:10259000A001A1017308F500F6017508A2007608F4
:1025A000A300241CD42AD52ADB2A2208A00703185A
:1025B000A10A2308A10701300310A20DA30DFF3EBD
:1025C000031DDC2A0310A40C2408031DE82AE92AB1
:1025D000D12A2108F4002008F30008006830F50033
:1025E000E430F400F40BF22AF50BF22A00000A168C
:1025F0008A119A200A168A1170300A128A11F2275B
:102600000A168A11BA300A128A11F2270A168A119A
:102610000A168A11A4200A168A114130F500EE30FC
:10262000F400F40B112BF50B112B000008008312A2
:102630000313A001A101731C1E2B1F2B272B750850
:1026400083120313A0070318A10A7608A10701301B
:102650000310F50DF60DFF3E031D282B013003106E
:10266000F40CF30CFF3E031D2F2B73087404031DA1
:102670003A2B3B2B1B2B831203132108F400200859
:10268000F3000800F7007708840000300A168A116A
:10269000A6230A168A110A168A1152210A168A11CD
:1026A00083138000831203132408840001300A1668
:1026B0008A11A6230A168A110A168A1152210A16AD
:1026C0008A118000831203132508840002300A1641
:1026D0008A11A6230A168A110A168A1152210A168D
:1026E0008A1180000800F7007708840004300A1679
:1026F0008A11A6230A168A110A168A1152210A166D
:102700008A11831380008312031324088400053088
:102710000A168A11A6230A168A110A168A1152214C
:102720000A168A118313800083120313250884007C
:1027300006300A168A11A6230A168A110A168A1169
:1027400052210A168A11831380000800F5000A1628
:102750008A119A200A168A11D0300A128A11F22799
:102760000A168A1175080A128A11F2270A168A11A6
:102770000A168A1190200A168A11D1300A128A117B
:10278000F2270A168A110A168A11B9200A168A1126
:10279000F6000A168A11AE200A168A110A168A1144
:1027A000A4200A168A110630F400F40BD52B000081
:1027B00076080800F70077080F39F5007708F03938
:1027C000F6008312031308177608F4000430031090
:1027D000F40CFF3E031DE72B74080A168A11AA2188
:1027E0000A168A118312031388171A30F400F40BA7
:1027F000F72B000083120313881375080A168A1139
:10280000AA210A168A118312031388171A30F400BA
:10281000F40B082C000083120313881308008312A2
:102820000313230824040319162C172C462CA80183
:10283000A80A252C01300310A30DA40DFF3E031D93
:102840001B2C0130A7002708A807A41F282C292C1F
:102850001A2C24082602031D2F2C23082502031CF2
:10286000322C332C392C2308A5022408031CA60380
:10287000A60201300310A40CA30CFF3E031D3A2C4A
:102880000130A802031D452C462C292C2608A40043
:102890002508A300080083120313A501A601742CC8
:1028A00025082007A3002108A2000318A20AA51FDB
:1028B0005A2CA203831203132208A4002408FF0049
:1028C000230884000A168A1100200A168A110A16A3
:1028D0008A11DA230A168A11013083120313A5071D
:1028E0000318A60A0030A60725082007A300210820
:1028F000A2000318A20AA51F7E2CA20383120313B1
:102900002208A4002408FF00230884000A168A1164
:1029100000200A168A11003A031D8F2C902C502C8F
:10292000080083120313A101A201730874040319A0
:102930009A2C9B2CD22CA001A00AA92C01300310A8
:10294000F30DF40DFF3E031D9F2C0130F7007708B7
:10295000A007F41FAC2CAD2C9E2C01300310A10D50
:10296000A20DFF3E031DAE2C74087602031DBA2C87
:1029700073087502031CBD2CBE2CC52C7308F50210
:102980007408031CF603F602211401300310F40C42
:10299000F30CFF3E031DC62C0130A002031DD12CF9
:1029A000D22CAD2C2208F4002108F3000800831279
:1029B0000313A1002103031DDE2CDF2CFE2C77085E
:1029C0007F3EA4002408A00004300310A00CFF3EAA
:1029D000031DE52C2008A20024080F39A3002208BB
:1029E0000A168A1138210A168A1183120313230842
:1029F0000A168A1138210A168A11222D0230210660
:102A0000031D032D042D222D7708BF3EA4002408AA
:102A1000A00004300310A00CFF3E031D0A2D200867
:102A2000A20024080F39A30022080A168A113821AF
:102A30000A168A118312031323080A168A113821F1
:102A40000A168A1108006830F500E430F400F40B2F
:102A5000272DF50B272D00000A168A119A200A1639
:102A60008A1170300A128A11F2270A168A117130FF
:102A70000A128A11F2270A168A110A168A11902060
:102A80000A168A1171300A128A11F2270A168A115F
:102A90000A168A11B9200A168A11F6000A168A1136
:102AA000AE200A168A110A168A11A4200A168A1163
:102AB00076080839F6000A168A119A200A168A1131
:102AC00070300A128A11F2270A168A11E1300A12AE
:102AD0008A11F2270A168A1108300A128A11F2277F
:102AE0000A168A1100300A128A11F2270A168A1170
:102AF0000A168A11A4200A168A111A30F500F83035
:102B0000F400F40B812DF50B812D0000080000303E
:102B10000A168A11AA210A168A1134308312031365
:102B2000A100F130A000A00B932DA10B932D033039
:102B30000A168A1138210A168A110D3083120313DE
:102B4000A100FB30A000A00BA32DA10BA32D0330EF
:102B50000A168A1138210A168A1184308312031347
:102B6000A000A00BB12D000003300A168A113821F5
:102B70000A168A1102300A168A1138210A168A1199
:102B800002300A168A1138210A168A1108300A16EC
:102B90008A1138210A168A1100300A168A11382142
:102BA0000A168A110C300A168A1138210A168A115F
:102BB00000300A168A1138210A168A1106300A16C0
:102BC0008A1138210A168A11413083120313A0009A
:102BD000A00BE82DEB2D080083120313A40024089A
:102BE0000319F32DF42D082EF61FF72DF82D082EBE
:102BF0007309A6007409A7007509A8007609A90041
:102C0000A60A0319A70A0319A80A0319A90A102E6C
:102C10007608A9007508A8007408A7007308A60024
:102C20007608750474047304031D172E182E212EC4
:102C30000030F6000030F5000030F4000030F30002
:102C4000A52E9630A500312E0130A0002008A50742
:102C500001300310A90CA80CA70CA60CFF3E031D05
:102C6000292EFE302905031D362E372E242E532EF5
:102C70000130A0002008A5070130A6070030031886
:102C80000130A707003003180130A80700300318EF
:102C90000130A90701300310A90CA80CA70CA60C41
:102CA000FF3E031D4B2EFF302905031D582E592EC4
:102CB000382E652E0130A5020130A0000310A60DAC
:102CC000A70DA80DA90DA00B5E2EA81B682E692EBE
:102CD0006F2E0230250203186E2E6F2E5A2E2518E5
:102CE000722E732E7B2EFF30A605FF30A7057F3096
:102CF000A805FF30A9050310A50C2508A000A10117
:102D0000A201A30118300310A00DA10DA20DA30D67
:102D1000FF3E031D832E2008A6042108A7042208D5
:102D2000A8042308A90424080319972E982E9D2E81
:102D3000F61F9B2E9C2E9D2EA9172908F600280809
:102D4000F5002708F4002608F30008000A168A1187
:102D50009E220A168A110A168A1187250A168A11D6
:102D60000A168A11DA200A168A110A30F700013091
:102D70000A168A11D7240A168A111A3083120313ED
:102D8000A0008030A1000A168A114B240A168A116D
:102D90000A168A11EE220A168A110A168A112325AA
:102DA0000A168A1100300A168A1158220A168A1148
:102DB00000300A168A1112220A168A1100300A16E9
:102DC0008A11EF210A168A1114300A168A11CC21B1
:102DD0000A168A1102300A168A1135220A168A1139
:102DE00017300A168A117B220A168A117A3083124A
:102DF0000313A4007930A5006C300A168A1142230F
:102E00000A168A11EE3083120313A400ED30A500D8
:102E1000EF300A168A1173230A168A110A128A15CC
:102E200023220A168A110A168A1122210A168A11E9
:102E3000F701F70A01300A168A11D7240A168A11F7
:102E40000B3083120313A900790883120317900033
:102E50009101100883120313AA00831203171108AB
:102E600083120313AB007A088312031792009301B5
:102E7000120883120313AC00831203171308831282
:102E80000313AD006C088312031794009501140816
:102E900083120313AE008312031715088312031362
:102EA000AF00D0300A128A159D200A168A11D03040
:102EB00083120313A0000130A1000A168A114B24CB
:102EC0000A168A11F701F70A02300A168A11D72466
:102ED0000A168A11153083120313A9000030AA00C4
:102EE000AB00D0300A128A159D200A168A11D03004
:102EF00083120313A0000130A1000A168A114B248B
:102F00000A168A110430F70002300A168A11D724F3
:102F10000A168A11153083120313A9000030AA0083
:102F2000AB00D0300A128A159D200A168A11D030C3
:102F300083120313A0000130A1000A168A114B244A
:102F40000A168A110730F70002300A168A11D724B0
:102F50000A168A11153083120313A9007808831208
:102F6000031790009101100883120313AA00831223
:102F70000317110883120313AB00D0300A128A150D
:102F80009D200A168A11D03083120313A00001304D
:102F9000A1000A168A114B240A168A110A30F7007A
:102FA00002300A168A11D7240A168A1115308312A4
:102FB0000313A900831603136508831203179000F7
:102FC0009101100883120313AA008312031711083A
:102FD00083120313AB00D0300A128A159D200A1603
:102FE0008A11D03083120313A0000130A1000A1609
:102FF0008A114B240A168A11F62E0A128A110C28FD
:08400000FF3FFF3FFF3FFF3FC0
:04400E00D420FF3F7C
:00000001FF
