:060000000A128A110C280F
:10000800FE00030EF7000A08F8000A128A15782F76
:100018000A128A110F28F901FA01FB01FC01831663
:100028000313B001B101B201B301B401B501B601C6
:10003800B70183010A128A11292E8312031331088A
:100048008039BB003108B6003607C100B01F2D2823
:100058002E282F284114410803193328342843280F
:10006800410A031D3828392841280030B1000030E2
:10007800B0000030AF000030AE00B0174B280030A1
:10008800B1000030B0000030AF000030AE003508DD
:100098008039B6003608BB063508B6003607C000FA
:1000A800B41F5728582859284014400803195D28B8
:1000B8005E286D28400A031D622863286B280030DB
:1000C800B5000030B4000030B3000030B200B417FF
:1000D80075280030B5000030B4000030B30000309F
:1000E800B2004008031979287A287F284108031D9F
:1000F8007E287F2888280030B1000030B00000300A
:10010800AF000030AE00652B2E08A00034080A129C
:100118008A156E260A128A11831203132108C70052
:100128002008C6004608B600B701B801B901390869
:10013800BF003808BE003708BD003608BC004708B5
:10014800B600B701B801B9013908C5003808C400BC
:100158003708C3003608C2002F08A00033080A1267
:100168008A156E260A128A11831203132108C70002
:100178002008C6004608B600B701B801B90136081C
:10018800BC07370803110318013E0319CC28BD0723
:10019800380803110318013E0319D328BE0739088C
:1001A80003110318013E0319DA28BF074708B600F0
:1001B800B701B801B9013608C20737080311031897
:1001C800013E0319E828C307380803110318013E44
:1001D8000319EF28C407390803110318013E03194E
:1001E800F628C5073008A00032080A128A156E26BC
:1001F8000A128A11831203132108C7002008C600B7
:100208004608B600B701B801B9013608BC07370877
:1002180003110318013E03191229BD0738080311F9
:100228000318013E03191929BE07390803110318D9
:10023800013E03192029BF074708B600B701B801D6
:10024800B9013608C207370803110318013E03191C
:100258002E29C307380803110318013E031935294D
:10026800C407390803110318013E03193C29C507BF
:100278000830B6000310BC0DBD0DBE0DBF0DB60B8A
:100288003E292F08A00032080A128A156E260A1283
:100298008A11831203132108C7002008C6004608E4
:1002A800B6004708B700B801B9013608BC073708D7
:1002B80003110318013E03196229BD073808031109
:1002C8000318013E03196929BE07390803110318E9
:1002D800013E03197029BF072E08A00033080A122F
:1002E8008A156E260A128A11831203132108C70081
:1002F8002008C6004608B6004708B700B801B9018B
:100308003608BC07370803110318013E03198D2965
:10031800BD07380803110318013E03199429BE07C5
:10032800390803110318013E03199B29BF07083038
:10033800B6000310BC0DBD0DBE0DBF0DB60B9D293B
:100348002E08A00032080A128A156E260A128A118F
:10035800831203132108C7002008C6004608B60008
:100368004708B700B801B9013608BC0737080311B8
:100378000318013E0319C129BD07380803110318E2
:10038800013E0319C829BE07390803110318013EA5
:100398000319CF29BF072F08A00034080A128A15AD
:1003A8006E260A128A11831203132108C700200837
:1003B800C6004608B6004708B700B801B9013608B4
:1003C800C207370803110318013E0319EC29C307B4
:1003D800380803110318013E0319F329C407390823
:1003E80003110318013E0319FA29C5073008A000B4
:1003F80033080A128A156E260A128A118312031309
:100408002108C7002008C6004608B6004708B700FC
:10041800B801B9013608C207370803110318013EAD
:100428000319172AC307380803110318013E0319D3
:100438001E2AC407390803110318013E0319252A87
:10044800C5073008A00034080A128A156E260A1259
:100458008A11831203132108C7002008C600460822
:10046800B6004708B700B801B90108300310B60D47
:10047800B70DB80DB90DFF3E031D3A2A3608C2075D
:10048800370803110318013E03194B2AC30738081C
:1004980003110318013E0319522AC407390803112E
:1004A8000318013E0319592AC5073C08B6003D0840
:1004B800B7003E08B8003F08B90018300310B90C5F
:1004C800B80CB70CB60CFF3E031D622A3608C207EB
:1004D800370803110318013E0319732AC3073808A4
:1004E80003110318013E03197A2AC40739080311B6
:1004F8000318013E0319812AC5070830B600031006
:10050800BC0DBD0DBE0DBF0DB60B832A41084007BB
:10051800B600B701B70D3608823EC6003708031883
:10052800013EFF3EC700B52A0130B6000310C20DD8
:10053800C30DC40DC50DB60B9A2ABF1FA42AA52A40
:10054800A62A42140130B6000310BC0DBD0DBE0D25
:10055800BF0DB60BA82AFF30C6070318C70AFF301D
:10056800C707C41FB82AB92A982AC001BF1FBD2AC5
:10057800BE2ADA2AFF303C05B600FF303D05B70039
:10058800FF303E05B8007F303F05B9003908380410
:10059800370436040319D12AD22AD52AC001C00A41
:1005A800DA2A421CD82AD92ADA2AD22A4008031978
:1005B800DE2ADF2A102B0130C20700300318013071
:1005C800C307003003180130C40700300318013096
:1005D800C507451CF02AF12A102B4208B60043082B
:1005E800B7004408B8004508B9000130BA00390D11
:1005F800B90CB80CB70CB60CBA0BFB2A3908C500F5
:100608003808C4003708C3003608C2000130C607DE
:100618000318C70A0030C7074708803AFF00803030
:100628007F02031D192BFF304602031C1C2B1D2BB8
:10063800282B7F3083120313C5008030C40000309C
:10064800C3000030C200592B831203134708803AB5
:10065800FF0080307F02031D332B01304602031850
:10066800362B372B432B003083120313C500003081
:10067800C4000030C3000030C200BB01592B8312F4
:1006880003134608C100FF30C205FF30C3057F30A1
:10069800C4050030C505411C522B532B542BC417DD
:1006A8004108B6000310360CC5003B08B6003608F2
:1006B800C5044508B1004408B0004308AF0042082B
:1006C800AE000800831203134F088039D9004F0881
:1006D800D0005007E000CE1F722B732B742B6014D0
:1006E80060080319782B792B892B600A031D7D2B51
:1006F8007E2B862B0030CF000030CE000030CD009E
:100708000030CC00CE17CF01912B0030CF00003045
:10071800CE000030CD000030CC004B088039D0002E
:100728005008D9064B08D0005007E100CA1F9D2B7E
:100738009E2B9F2B611461080319A32BA42BB42BA8
:10074800610A031DA82BA92BB12B0030CB00003068
:10075800CA000030C9000030C800CA17CB01BC2B42
:100768000030CB000030CA000030C9000030C8009B
:100778004B084A0449044804031DC32BC42BDD2B32
:100788000030CF000030CE000030CD000030CC006B
:100798008030CE047F30CF045908D0005008CF04F1
:1007A8004F08CB004E08CA004D08C9004C08C800C5
:1007B800382D6008031DE12BE22BEB2B0030CB001A
:1007C8000030CA000030C9000030C800382D600869
:1007D800D000D1015108D30061085002D200031C97
:1007E800D30352087F3EDA0053080318013E003E47
:1007F800DB004F08D8004E08D7004D08D6004C083B
:10080800D5000030CF000030CE000030CD000030E1
:10081800CC000030DF000030DE000030DD000030AA
:10082800DC00E101612C610803191B2C1C2C3C2CF9
:100838000130D0000310D50DD60DD70DD80DD00B33
:100848001E2C0130D0000310CC0DCD0DCE0DCF0DD8
:10085800D00B272CDF1F312C322C332C4C140130B9
:10086800D0000310DC0DDD0DDE0DDF0DD00B352CB7
:100878004B085802031D4A2C4A085702031D4A2CEC
:1008880049085602031D4A2C48085502031C4D2CE2
:100898004E2C5D2C5F174808D5024908031C490FE8
:1008A800D6024A08031C4A0FD7024B08031C4B0FF9
:1008B800D8020130D0005008E1071A306102031C49
:1008C800662C672C172C580857045604550403192E
:1008D8006E2C6F2C8E2C5C148E2C0130D0000310E3
:1008E800CC0DCD0DCE0DCF0DD00B732CDF1F7D2C75
:1008F8007E2C7F2C4C140130D0000310DC0DDD0D54
:10090800DE0DDF0DD00B812CFF30DA070318DB0A70
:10091800FF30DB07CE1F912C922C712CE101DF1FD9
:10092800962C972CB32CFF305C05D000FF305D056A
:10093800D100FF305E05D2007F305F05D300530839
:100948005204510450040319AA2CAB2CAE2CE1011B
:10095800E10AB32C4C1CB12CB22CB32CAB2C610883
:100968000319B72CB82CE92C0130CC070030031838
:100978000130CD07003003180130CE0700300318CE
:100988000130CF074F1CC92CCA2CE92C4C08D000C9
:100998004D08D1004E08D2004F08D3000130D400D2
:1009A800530DD30CD20CD10CD00CD40BD42C53082F
:1009B800CF005208CE005108CD005008CC000130BD
:1009C800DA070318DB0A0030DB075B08803AFF0010
:1009D80080307F02031DF22CFF305A02031CF52CD5
:1009E800F62C042DFF3083120313DA000030DB00ED
:1009F8000030CF000030CE000030CD000030CC00F9
:100A0800831203135B08803AFF0080307F02031DC6
:100A18000F2D01305A020318122D132D202D831289
:100A28000313DA01DB010030CF000030CE000030C4
:100A3800CD000030CC00D901831203135A08E0001E
:100A4800601C272D282D2A2DCE172E2D7F30D00063
:100A58005008CE056008D0000310500CCF0059088C
:100A6800D0005008CF04D42B080083120313881534
:100A7800053083120313E600E60B402D432D831245
:100A880003138811081D492D4A2D462D8F018E010B
:100A980008194F2D502D4C2D0E08E600E701660869
:100AA80083160313AA00831203136708831603131C
:100AB800AB00831203130F08E600E70166088316EC
:100AC8000313A80083120313670883160313A900EE
:100AD8003A3083120313B1002E30B0009630AF00C5
:100AE8008130AE0083160313280883120313E7002E
:100AF800E601831603132A08831203136607A0006E
:100B0800831603132B0803182B0A83120313670792
:100B1800A100A201A30100300A128A11EF260A12CD
:100B28008A11831203132308B5002208B400210890
:100B3800B3002008B2000A128A1121200A128A1171
:100B480083120313310883160313A70083120313B8
:100B5800300883160313A600831203132F08831685
:100B68000313A500831203132E0883160313A4008E
:100B7800403083120313CB000030CA000030C90094
:100B88000030C8004230B1000830B0000030AF007B
:100B98000030AE0083160313270883120313B50031
:100BA80083160313260883120313B4008316031352
:100BB800250883120313B300831603132408831232
:100BC8000313B2000A128A1121200A128A11831211
:100BD80003133108CF003008CE002F08CD002E08AF
:100BE800CC000A128A1166230A128A11831203138F
:100BF8004B0883160313A300831203134A088316B2
:100C08000313A20083120313490883160313A100D8
:100C180083120313480883160313A00023088312C2
:100C28000313E50083160313220883120313E40059
:100C380083160313210883120313E3008316031397
:100C4800200883120313E20008000A128A150826F6
:100C58000A128A110A128A157E250A128A110A12A4
:100C68008A1139250A128A1183120313650883161B
:100C78000313AF0083120313640883160313AE0033
:100C880083120313630883160313AD00831203133F
:100C9800620883160313AC002F0883120313B500F0
:100CA800831603132E0883120313B4008316031349
:100CB8002D0883120313B300831603132C08831221
:100CC8000313B2004230B100C830B0000030AF00AA
:100CD8000030AE000A128A1121200A128A118312EA
:100CE80003133108CF003008CE002F08CD002E089E
:100CF800CC003F30CB008030CA000030C900003043
:100D0800C8000A128A1166230A128A118312031371
:100D18004B08E5004A08E4004908E3004808E200F7
:100D28000A128A1500270A128A118312031362080D
:100D3800FD0000300A128A11D3270A128A110030E6
:100D48000A128A11A9270A128A110630831203137C
:100D5800EE001330ED00AD30EC00EC0BB12EED0BD6
:100D6800B12EEE0BB12E5A300A128A11D3270A126D
:100D78008A115A300A128A11A9270A128A110630D2
:100D880083120313EE001330ED00AD30EC00EC0BD2
:100D9800CB2EED0BCB2EEE0BCB2EB4300A128A11D4
:100DA800D3270A128A11B4300A128A11A9270A1203
:100DB8008A11063083120313EE001330ED00AD30B4
:100DC800EC00EC0BE52EED0BE52EEE0BE52E332EAD
:100DD8000A128A110C2883120313A8002808031981
:100DE800F62EF72E0B2FA31FFA2EFB2E0B2F200902
:100DF800AA002109AB002209AC002309AD00AA0A08
:100E08000319AB0A0319AC0A0319AD0A132F2308F7
:100E1800AD002208AC002108AB002008AA00230876
:100E2800220421042004031D1A2F1B2F242F003015
:100E3800A3000030A2000030A1000030A000A82FBD
:100E48009630A900342F0130A4002408A9070130E6
:100E58000310AD0CAC0CAB0CAA0CFF3E031D2C2FE1
:100E6800FE302D05031D392F3A2F272F562F01301D
:100E7800A4002408A9070130AA070030031801308C
:100E8800AB07003003180130AC07003003180130FD
:100E9800AD0701300310AD0CAC0CAB0CAA0CFF3E37
:100EA800031D4E2FFF302D05031D5B2F5C2F3B2F9D
:100EB800682F0130A9020130A4000310AA0DAB0D60
:100EC800AC0DAD0DA40B612FAC1B6B2F6C2F722FCB
:100ED800023029020318712F722F5D2F2918752FE0
:100EE800762F7E2FFF30AA05FF30AB057F30AC058B
:100EF800FF30AD050310A90C2908A400A501A6011F
:100F0800A70118300310A40DA50DA60DA70DFF3ECF
:100F1800031D862F2408AA042508AB042608AC0460
:100F28002708AD04280803199A2F9B2FA02FA31F69
:100F38009E2F9F2FA02FAD172D08A3002C08A200CD
:100F48002B08A1002A08A000080083120313B1008F
:100F5800B430A6000030A7003108AF00B0012F0858
:100F6800A0003008A1002E30A2000030A3000A1211
:100F78008A1547260A128A11831203132108A90029
:100F88002008A8000A128A1597260A128A118312C5
:100F9800031326080E3E83160313B10008008312BC
:100FA8000313B100B430A6000030A7003108AF0029
:100FB800B0012F08A0003008A1002E30A200003098
:100FC800A3000A128A1547260A128A1183120313EC
:100FD8002108A9002008A8000A128A1597260A12D3
:100FE8008A118312031326080E3E83160313B000DA
:020FF8000800EF
:101AEA008312031314121308141394131416941163
:101AFA00080083160313881108158312031388112B
:101B0A00F830900010140800831203131308831688
:101B1A000313141C912D922D8C2D83120313130879
:101B2A00F0001416941170080800F00083120313D1
:101B3A0013088316031314107008831203139300F7
:101B4A001416831603131418AB2DAC2DA62D0800FA
:101B5A00F40183160313941AB32DB42DBA2D141D50
:101B6A00B72DB82DBA2DF401F40A7408F200F30166
:101B7A007208F0007308F1000800F40183160313D9
:101B8A00941AC82DC92DCF2D1419CC2DCD2DCF2D9A
:101B9A00F401F40A7408F200F3017208F000730801
:101BAA00F1000800831203131412F401F40A141B3F
:101BBA00DF2DE02DE52D941BE32DE42DE52DF40119
:101BCA007408F200F3017208F0007308F1000800CB
:101BDA0083160313051083120313051083160313C8
:101BEA0085108312031385108B160B1183160313AA
:101BFA00811201168111011181100110FA3083122C
:101C0A0003138100080083160317880189018316CC
:101C1A000313850183120313850186018701880155
:101C2A00831603130F178F160F160F140A128A152D
:101C3A00ED250A128A1540300A128A1527260A1239
:101C4A008A15080083120313A0008316031387154D
:101C5A000716803094008312031320088316031397
:101C6A009300363083120313940001308316031352
:101C7A0091008B170B17831203138C11831603130E
:101C8A008C15080083120313A401A501201C4E2EF3
:101C9A004F2E552E2208A4070318A50A2308A507C4
:101CAA0001300310A20DA30DFF3E031D562E013075
:101CBA000310A10CA00CFF3E031D5D2E2008210479
:101CCA00031D682E692E4B2E2508A1002408A000AA
:101CDA00080083120313A800A401A5012008A2008A
:101CEA00A3012208A6002308A700281C7D2E7E2E09
:101CFA00842E2608A4070318A50A2708A507013079
:101D0A000310A60DA70DFF3E031D852E0310A80C78
:101D1A002808031D912E922E7A2E2508A100240848
:101D2A00A000080083120313AC01A71F9D2E9E2E4C
:101D3A00A52EA609A709A60A0319A70AAC01AC0A87
:101D4A00A91FA82EA92EB22EA809A909A80A031903
:101D5A00A90A0130AA002A08AC06AD01AE0126087C
:101D6A0027040319B92EBA2EF12EAB01AB0AC82EDD
:101D7A0001300310A60DA70DFF3E031DBE2E013034
:101D8A00AA002A08AB07A71FCB2ECC2EBD2E0130E6
:101D9A000310AD0DAE0DFF3E031DCD2E27082902FF
:101DAA00031DD92E26082802031CDC2EDD2EE42E64
:101DBA002608A8022708031CA903A9022D1401302A
:101DCA000310A70CA60CFF3E031DE52E0130AB0243
:101DDA00031DF02EF12ECC2E2C080319F52EF62E0B
:101DEA00FB2EAD09AE09AD0A0319AE0A2E08A700EB
:101DFA002D08A6000800031083120313640D650D55
:101E0A00EB006B08031D0A2F0B2F142F0030E5007F
:101E1A000030E4000030E3000030E200772F62086F
:101E2A00E6006308E7006408E8006508E9001F3077
:101E3A000310E90CE80CE70CE60CFF3E031D1D2F0E
:101E4A006608EA00E417FF30E205FF30E305FF30D9
:101E5A00E4050030E5059630EB02EB1F352F362FEF
:101E6A00502F6B08803A973E03183C2F3D2F3E2F88
:101E7A000B2F01300310E50CE40CE30CE20CFF3EDF
:101E8A00031D3F2F0130E6006608EB07031D4E2FA6
:101E9A004F2F3E2F672F20306B02031C552F562FD2
:101EAA00622F0B2F0130E6000310E20DE30DE40D63
:101EBA00E50DE60B592F0130EB026B08031D662F67
:101ECA00672F572F6A0803196B2F6C2F772FE20998
:101EDA00E309E409E509E20A0319E30A0319E40A32
:101EEA000319E50A08000B1D7B2F7C2FBE2F7908EA
:101EFA00013EF9007A080318013E003EFA0001305B
:101F0A007A02EB3003197902031C8C2F8D2F8F2F45
:101F1A00F901FA01831603133008F500F601760871
:101F2A007A02031D9A2F7508790203189D2F9E2F96
:101F3A00A22F831203130514A52F8312031305106E
:101F4A00831603133108F500F60176087A02031D99
:101F5A00B02F750879020318B32FB42FB82F831244
:101F6A0003138514BB2F831203138510FA308100E3
:101F7A000B11831203138C1DC32FC42FF92F0A12BE
:101F8A008A15D7250A128A15700871040319CE2FEB
:101F9A00CF2FD42F0A128A1575250A128A150A120A
:101FAA008A15C2250A128A1570037104031DDE2FD1
:101FBA00DF2FE52F0A128A1589250A128A15FC00D5
:101FCA000A128A15AD250A128A1570037104031DB7
:101FDA00EF2FF02FF62F7D080A128A159A250A127A
:101FEA008A15831203138C1178088A00770E8300EE
:061FFA00FE0E7E0E090040
:08400000FF3FFF3FFF3FFF3FC0
:04400E00D420FF3F7C
:00000001FF
